:020000040001F9
:208000000040002045F0010081F0010083F0010000000000000000000000000000000000E4
:2080200000000000000000000000000085F00100000000000000000087F0010089F00100D8
:208040008BF001005DAA01009DF601008BF001008BF0010000000000BDF001008BF00100E6
:208060008BF0010079F8010029F501008BF001008BF001008BF001008BF001008BF0010087
:208080008BF001008BF001008BF001008BF001008BF001007DD3010011D501008BF00100C0
:2080A0008BF001008BF00100000000000000000000000000000000000000000000000000C8
:2080C00010B5064C2378002B07D1054B002B02D0044800E000BF0123237010BDB820002037
:2080E00000000000E09A0200084B10B5002B03D00749084800E000BF07480368002B00D1F9
:2081000010BD064B002BFBD09847F9E700000000BC200020E09A0200AC2000200000000028
:20812000164B002B00D1144B9D46402292029A1A924600218B460F461348144A121A10F0F2
:20814000A2FB0F4B002B00D098470E4B002B00D098470020002104000D000D48002802D07A
:208160000C4800E000BF0BF08DFF2000290010F04CF90BF071FFC04600000800004000201E
:208180000000000000000000B020002018290020000000000000000010B50400034B036014
:2081A00040300CF03BFF200010BDC046208B020013B50A4C200000F01DF9094901A800F04A
:2081C00051FF2000782201A9EC3002F047F901A80CF024FF00F06AFD002016BDD420002077
:2081E000C894020010B5054C200000F043F8044A0449200010F0E5FA10BDC046D42000203F
:208200000020002009820100EB23194A9B0010B5C25018330400C0180CF000FFF0239B00DF
:20822000E0180CF0FBFE84239B00E01801F070FA2000C530FF3000F0A1FF20008D30FF30DC
:2082400001F0BCF920006530FF3001F0B7F92000EC3001F01FFF2000D03002F073FA200009
:20826000643006F047FE201DFFF796FF200010BD1C8D02001423F0B5040095B019220093DC
:208280001821043002F03CFC230027006433B43713211800119306F039FE38000DF05BFED0
:2082A0002300B83300221E21180010930DF019FB2000D03002F066FA2300EC334A4A062114
:2082C0001800129301F00AFF20000026012365301A0000961121FF3001F0ECF920008D3024
:2082E0000096012302221A21FF3001F0E3F925002000C535B530FF351A2302220121FF305F
:2083000002F000FB109904233A22280000F0C6FF84239B00E31813930523019318330093EA
:208320002A003B001099139801F00CFC96239B00E0182A00129B139901F0E2FD99239B0095
:20834000E01839001C2202F06DFD9F239B00E01819230F93013B0E93013B0D93013B0C938B
:20836000013B0B93013B0A93013B0993013B0893013B0793013B0693013B0593013B049349
:20838000013B0393013B0293013B0193013B082200930721013B0DF0ACFAEB239B00E018C9
:2083A000390002F0EBFFF2239B00E0181D2102F0EFFAFC239B00E6501198267003210FF095
:2083C00052FF23002200200008499C33A0321C6011605660064A80305A610221012206F05B
:2083E0001FFF200015B0F0BD288B02006B4C0200574C02000123F0B5067889B004001E40D8
:2084000000D0B0E0FD20800500F0E4FC2300D0331800029300F0B4FA00F0A4F9282000F054
:2084200011FD050010300CF088FE504B6E802B80182000F007FD07004D4B10C703901022CC
:20844000310038000693079610F01DFA082206A9380010F0FAF9474B039A29005361122321
:20846000AA60EE60AB802E626E62029802F0F6F8002805D028000CF087FD280000F004FDE1
:2084800001222378642013432370FC2600F096FB0025B60027006537FF3738000CF0FAFF0D
:2084A00000283BD020008D30FF300CF0F3FF002834D0092D32DC6420013500F07FFB0A2DC4
:2084C000E8D12D49080000F059FCA359002B1CD100F060F8010004A800F0C4FD05A80CF0BD
:2084E00036FCEB200123800005AA04A900932018029B02F0E1FF05A80CF090FD04A80CF027
:208500008DFDED239B00E358A351EB2321009B003A00EC31E01803F067F9BBE7FC26164968
:20852000B600080000F02AFCA559002D1BD100F031F8010004A800F095FD05A80CF007FC5C
:20854000EB239B00E01805AA029B04A9009502F0B3FF05A80CF062FD04A80CF05FFDED232C
:208560009B00E358A35109B0F0BDC046FD030000DF4C02009F4C020000200020BFF34F8FDB
:20858000024A034BDA60BFF34F8FFEE70400FA0500ED00E0F0B58DB005AF1922154938005B
:2085A00010F053F90022144B05245A7180225205566E01222500019402920393019930006C
:2085C00007F0ECFA0800029907F062FA019B03996B430193029B361A6B430293631E2C1B56
:2085E0006C433C19225C1C1ECA54E7D108000DB0F0BDC0460E95020046280020F0B595B054
:208600001822002106000EA810F03DF913210EA80FF065FF03210EA80FF0F7FF01224A4B39
:2086200000921B68002B01D0DBB200930123474A002109A806F064FF454B9E4200D90026BA
:2086400072B6444B1022002105A81D6810F01BF9414B642130000593052407F0A3FA604391
:208660005030281806900A21300007F09BFA0A2107F07EFB614350316918079130000A2189
:2086800007F076FB4C43210050316C18802608940024B601009B002B3CD004AD0027032CC7
:2086A00002D180260024B6016B682C4A029363000133D318002201921021581E00780141F0
:2086C000039119788C4660460299095C0398014204D001209040019901430191013206337E
:2086E000092AE9D1019B2A68D9431D4B09011940029B934203D1312F01DC002100E0314380
:2087000009A810F03DF8FA23139A0F99DB001068014201D1FFF732FF013B002BF7D1FA2326
:20872000013401377600E4B25B009F42B7D1043508ABAB42B2D1044B1B68002BAAD0009B8E
:20874000013BDBB20093A5E7C8240020F0FF0000E7030000042000205D9502002795020056
:20876000F01F0000F8B50023144C23600CF010FB2500002808D0042120000CF005FB0028A2
:208780001BD00F4B236018E00122A12704210D4B0D4E1A602368FF000B4A706094466246AB
:2087A0005268084C002AFAD0E2591B02013913430029F1D12B6001236360F8BDCC240020AD
:2087C000ED5EBC0B00D00040FCD00040F0B585B01F000AAB1B880600029115000393002FA7
:2087E0001BD0282000F02EFB6B4604001989039BAAB200933B000CF0B0FB336821005B68E8
:208800003000984700280BD0002C08D020000CF0BBFB200000F038FB01E0024800E00248D8
:2088200005B0F0BD17FCFFFF16FCFFFF0B4B70B51C68002C11D0656D00F0D0FBA36C0029E4
:2088400003D1834201D92C00F3E720000CF0D3FA034920000CF0BCFAF5E770BDF424002057
:20886000FC240020F0B5040093B00793230C0293294B04901C68294B05911E68069285B283
:208880000027002E46D0002C30D0636D24480393A36C9AB21B0C99B2854216D121488242C7
:2088A00013D1002B04D0029B994201D0039CEAE7002F01D00127F9E720000CF09CFA1A49FF
:2088C00020000CF085FA0137F0E7002A01D09542ECD1002B02D0029B9942E7D120000CF016
:2088E0008AFA114920000CF073FADFE70F4BEB18012B0FD91023029A009329000C4B08A848
:208900000CF02BFB336808A99B683000984708A80CF03AFB13B0F0BDF0240020002500200D
:20892000FE030000FF030000FC24002002FCFFFF6588010010B572B60B4B1C68002C03D044
:2089400020000CF058FA08E062B65C2000F07AFA5C22002104000FF096FF0023E364034BDA
:208960002000E36310BDC046D024002000400020024B1878012318407047C0464C280020A0
:20898000F7B50600FFF7F4FF051E33D11A4C2660FFF7D0FF194B1A4918600CF019FAFFF720
:2089A000C9FF184B1860184B4363184B8363206800280ED0C027164E2A0033001549009797
:2089C000FFF704FF009733002A0013492068FFF7FDFE0C2000F036FA0023838083710F4B15
:2089E00003600F4B836000F011FB01210D4A13780B431370F7BDC04600250020D4240020EF
:208A0000FC24002004250020FC3F0020BD4E020065880100FF030000FE030000488B02009F
:208A20002D8801004C280020F7B506000D0017000193002801D1002015E00029FBD0FFF789
:208A400079FF041EF7D0084B019A4363066045608760064B002A00D0054B2000A363054920
:208A60000CF0B6F92000FEBDFC3F0020874E0200A54E0200FC240020024B1868434258411E
:208A80007047C046FC240020002310B504499C006258002A01D00133F9E76050100010BDB2
:208AA000D8240020002310B5044A99008C58844201D00133F9E70020885010BDD82400205B
:208AC00010B50024074BE058002802D003685B6898470434182CF5D1034B1B68002B00D10D
:208AE00020BF10BDD8240020FC240020F8B5FFF73FFF002855D02B4E34683500E36CDA07C6
:208B000017D502252B43E3640423274F3868C26C1343C364636BC3630CF093F93868416CDC
:208B200003F0ADF83068C36C2B423AD003F0E1F837E01E4F1E4E3A68002A01D1326808E083
:208B4000216DB94205D1616D002900D11100296000E02A602A6831688A4208D11B0706D51D
:208B60002C60FFF7ADFF3B68002BFAD02B6029688C4216D03368994204D10E4B4B630E4BB4
:208B80008B6305E09C4203D100224B6C100006E020000CF056F920002968626C4B6C03F0ED
:208BA0002DF8F8BDD4240020F8240020FC24002004250020FC3F0020BD4E020070B505006C
:208BC000FFF7D6FE002803D128000FF017FD18E00C4B1C68E36CDB0706D5FFF7ABFE0A4BC1
:208BE0001860002800D0040000F0F8F92818A06420000CF000F9054920000CF0E9F8FFF786
:208C000075FF70BDD4240020F8240020F4240020F0B51E4B85B01C681D4B06001A680F0061
:208C20000393002A03D0FFF7A3FE002801D119482AE0E36CDB070ED5FFF77CFE164B051E9D
:208C4000186008D00CF0D7F8144928000CF0C0F82C00FFF74BFF3B043343A36420000CF07C
:208C6000CAF820000E490CF0B3F80E4B0020F318012B09D9C023039800933A000A4B3100B1
:208C80000068FFF7A3FD002005B0F0BDD42400200025002016FCFFFFF8240020FC2400206B
:208CA000F024002002FCFFFF6588010010B5FFF75FFE002809D0054C20680CF09CF80449C7
:208CC00020680CF085F8FFF711FF10BDD4240020D0240020F7B507000D0000282DD0FFF7B9
:208CE00047FE00282BD00724164E3068C36C1C4006D0154A290038000CF094F800241FE019
:208D000002F0DFFF02213268D36C1940019103D003218B43D36413E001242343D3642800C3
:208D2000B8473268D36C1900A143D164019C5B0706D528000CF0AEF802E0044C00E0044C23
:208D40002000FEBDD4240020954E020017FCFFFF16FCFFFF020010B5014B12CB12C210BD89
:208D600008250020034A044B12681A607E225A607047C046042000200825002070B5114DEB
:208D800002002B78022B19D0814219D90B1A072B16D90800032310431840041E10D172B619
:208DA0002B780948DB001A50C01841600CF08CF82B7801332B7062B6200002E0034800E0CA
:208DC000034870BD4D2800201025002013FCFFFF17FCFFFF70B50021041C06F0EBFF0028A5
:208DE00023D1FE21201C890506F0EEFF00281CD104300BF06DF905000F48401B07F034FF28
:208E0000211C07F02DFC07F013F803239843040028000BF067F920000BF05AF9002806D1FE
:208E2000203C002CF7D1054805E0054803E00119FFF7A4FF002070BD0038002013FCFFFF1B
:208E400017FCFFFF70B5050000240D4B1B789C4209DA0C49E300C91828000CF03DF800286D
:208E60000AD10134F1E728000BF032F9041E04D11420FFF7C3FB00E00400200070BDC046A6
:208E80004D2800201025002070B5002818D00D4B0D491C780023A34210DADA005558A8420E
:208EA0000AD98A185268904206D28023043802681B061343036003E00133ECE70BF012F9B6
:208EC00070BDC0464D2800201025002070B5051E15DD0C4B0C4E1A681C00002A02D0306858
:208EE0000FF017FAFA21256000243068074B89008361C46269430FF014FA200000E004481C
:208F000070BDC0465025002020250020B98F010017FCFFFFF8B5114F06003D68002D0AD10A
:208F20003020FFF78FFF040006F04AF80C4BA5612360E5623C600B4D2B68002B09D110203E
:208F4000FFF780FF04000FF039FA20002C600FF00FFA3000FFF7BAFFF8BDC04620250020B3
:208F6000B49002004C250020014B18687047C0465025002070B50D4C2368002B03D00C4B9E
:208F80001B68002B02D10620FFF7C4FF20680FF006FA02000749C3170D684E685219734174
:208FA00020680A604B600FF000FA70BD4C25002020250020B020002010B5FFF7DBFF00244F
:208FC000054BE058002802D003681B6898470434282CF5D110BDC0462425002010B5FFF7F9
:208FE000C9FFFA22034B920018685968002306F0FFFE10BDB020002010B5FFF7BBFF024BD7
:209000001868596810BDC046B02000200B4B10B51B680400002B03D0094B1B68002B02D1D7
:209020000620FFF777FF0023064A99008858002801D00133F9E78C5010BDC0464C25002065
:209040002025002024250020002310B5044A99008C58844201D00133F9E70020885010BD1F
:209060002425002010B50400002902D00B78002B02D1034B236001E00BF0D7FF200010BDD2
:20908000588B0200F8B505000E00140000290AD00B78002B07D0002A05D0080097B20FF040
:2090A00032FC874202D90B4B2B6010E0601DFFF7C9FE28600CF099F8286822004780310014
:2090C00004300FF0C2FB2B681C19002323712800F8BDC046588B0200014B03607047C046ED
:2090E000588B020010B50548054C20600CF080F8044A054920000FF064FB10BD588B020068
:2091000054250020002000201D500200084B73B51C680500002C0AD001002668083108220B
:2091200068460FF092FB0CCD31682000884773BD5825002010B5054C012120000CF04CF82F
:20914000034A044920000FF03CFB10BD5C25002000200020975102000388074A10B50120C5
:20916000934208D0834202D00020DB0703D41E20FFF744FA002010BDFFFF000010B50400AC
:20918000034B08330360FFF78DFC200010BDC046608B0200FA2370B52A4A41899B005943CD
:2091A0001300383304001E00083A1D6818008D420BD2254B227B1D1D082A0BD8042A09D819
:2091C0009D1C022A06D81D0004E0083B06009342EBD1EEE7FA213068890006F059FC6081B4
:2091E0002B78002223732A2120000CF024F8002801D0164824E010222B2120000CF01BF889
:209200000028F6D101222D2120000CF014F80028EFD101222E2120000CF00DF80028E8D16A
:209220006A780E2120000CF006F80028E1D1012233792A211A4320000BF0FDFF0028D8D1CA
:2092400070BDC046788B02003D9702000EFCFFFF7FB515000F226A4404001E001170002D00
:2092600015D0002B13DD012301890093006B01F06FF9002801D007480AE00090218933004A
:209280002A00206B01F01AF9002801D0F3E7024804B070BD0EFCFFFF17FCFFFFF7B506004C
:2092A00000250193214B143608330400036085808571C581058245820F000092290018220A
:2092C00030000FF0E0FA1C2130000FF008F96B469B880222A3806B461B88210023811423AD
:2092E000638123003833A571227327633E311D705D706587A5870B7820009343F1321340F7
:2093000022000B7023004832157055800135221DD5870833A21DD587DD87FFF73BFF0028D6
:2093200002D1A3791D43A5712000FEBD608B020030B50425837987B004002B4204D1FFF783
:20934000A3FBA3792B43A371A36AA2691B6800251A4228D106236A4601212000FFF778FF34
:20936000002801D0114D1EE06B460222207B9A5669464243D2001B79228202225BB2434343
:209380000978DB0049B241436382A379C9009343E181A37120000BF05CFF0123A1881A00FF
:2093A00002A80BF0D5FE280007B030BD0EFCFFFFF8B50400FFF7BCFF0E22A35E7C4F5B4266
:2093C000BB4205DA23003E331B789B0700D5C6E02000FFF7ADFF0E22A35EC8225B425200A1
:2093E0000025934205DD23003E331B789B0700D4B5E02000FFF79CFF1022A35E5B42BB42E1
:2094000005DA23003E331B785B0700D5B5E02000FFF78EFF1022A35EC8225B4252009342F6
:2094200005DD23003E331B785B0700D4A5E026002000FFF77DFF1222A35E4836BB4205DA21
:2094400023003E331B781B0700D5A3E02000FFF76FFFC8231221625E5B009A4205DD2300CD
:209460003E331B781B0700D494E0002D19D03378032B16D80133DBB23370012B04D1230019
:2094800000224A331A800CE0042B0AD1220001213E3213784A340B431370002323800B330B
:2094A00084E03278002A1AD02100270001254A310B883E3701339BB20B803878AC460540A6
:2094C00008D01D2B0BD963469843002338700B80337004E0092B02D9013A0D80327020008E
:2094E0000BF022FF334A072390425FDD2000FFF71FFF0E23E25E304E52420323B24255DB9A
:20950000C8252000FFF714FF0E23E25EAD0052420423AA424ADC2000FFF70AFF1023E25EB8
:2095200002235242B24241DB2000FFF701FF1023E25E01235242AA4238DC2000FFF7F8FE15
:209540001223E25E0523B24230DB2000FFF7F0FE1223E25E0623AA4228DC002326E001258E
:20956000210028003E310B785A08904302000220AA40834313430B703BE701252100280045
:209580003E310B789A08904382000420834313430B704CE7210001223E310B78D808824319
:2095A0000820D200834313430B7060E71800F8BD70FEFFFFFF700200E0FCFFFF10B5040086
:2095C000034B08330360FFF73FFD200010BDC046B88B020070B5C369C2681B688AB00400F9
:2095E000451D1A4250D0EB7F002B01D0013BEB77EB7F082B0DD90122A379134209D1134342
:20960000A371A188130006A80BF0A2FDFFF7E6FC2062EB7F012B26D80123A2791A4222D037
:209620000025A188A571022202A80BF091FDA31DDE7F012E17D1FFF7D1FC2B00226A801A27
:20964000994100900191019BA188AB4203D1174B009A9A4202D90123042201E03300032252
:2096600006A80BF075FD0323A2791340012B1AD1FFF7B4FC0023226A801A9941994208D1A7
:209680000B4B984205D80EE0EB7F0B2BB0D80133ADE70222A379A1881343A37103320123B3
:2096A00006A80BF055FD0AB070BDC046E7030000DB050000F0B5070000250E0085B002934F
:2096C0000AAB1B7808370393104B0400083303600192858085712900182238000FF0D3F87D
:2096E000039A310038000EF0FFFE6B466A469B88127AA380A31DE671DA77631D25622000A7
:20970000DD77FFF783FC200005B0F0BDB88B020010B50400034B08330360FFF7C3F9200032
:2097200010BDC046D08B02007FB515000F226A4404001E001170002D15D0002B13DD0123DD
:2097400001890093C06B00F003FF002801D007480AE00090218933002A00E06B00F0AEFE1F
:20976000002801D0F3E7024804B070BD0EFCFFFF17FCFFFF002330B585B003AC21700189CB
:209780000093050001332200C06B00F0E1FE002801D00A480FE020706070298900900223E0
:2097A0002200E86B00F08AFE0028F2D1207863780002184300B205B030BDC0460EFCFFFF9F
:2097C00013B56B46DC1D0023220023700133FFF7ABFF002801D1207800E0014816BDC046D7
:2097E0000EFCFFFFD0B504000BF07CFEE268A369981A08F0BDFE06000F00E3692069181A8C
:2098000008F0B6FE32003B0009F02EFA0022104B08F0AAF80F4A104B07F090FD08F03EFF8A
:209820000021041C06F0BCFA002804D0201C0B4906F0D6FB041C201C08F0DCFE02000B00AD
:209840000020074908F00AFB08F05CFED0BDC04600806640EA2E4454FB2109400000B44384
:2098600000807640F0B5050087B0006C0BF0FDFD041C286C0BF0F0FD0221061C28000BF06C
:2098800062FE0221059028000BF06FFE07F0A4F90221019028000BF07AFE07F09DF902901E
:2098A000201C08F0A7FE04000D0009F095F908F0F5FE29000390200009F044F908F0EEFE56
:2098C0000490301C08F096FE06000F0009F084F908F0E4FE3900041C300009F033F9060003
:2098E00005980F0007F078F93900051C300008F0D5FE011C281C06F0B3FE211C051C019800
:2099000006F0AEFE039906F0ABFE011C281C06F067FB211C051C029806F0A2FE049906F090
:209920009FFE011C281C06F05BFB08F063FE04000D000298039906F093FE0499061C01985E
:2099400006F08EFE011C301C06F09EFF08F052FE22002B0009F088F900220C4B08F004F80D
:209960000B4A0C4B07F0EAFC08F098FE0021041C06F016FA002804D0201C074906F030FBE0
:20998000041C201C07F006F907B0F0BD00807640EA2E4454FB2119400000B443F8B50022F0
:2099A000102105000BF090FD1D4E002835D1032708212800FFF704FFB0422ED03840041E52
:2099C00027D1FA23174A69899B005943130050331E00083A1F6818008F4203D3083B060063
:2099E0009342F7D1FA213068890006F051F8A0226881112128000BF067FD00280DD10122C2
:209A0000337910211A4328000BF05EFD002805D003E06420FFF7D2F8CAE7014C2000F8BD97
:209A20000EFCFFFFE88B0200F0B504260500807985B03040041E16D1022728000BF052FD93
:209A4000AB790622BB433343AB71A988012368460BF07EFBAB7920001A00B243AA713B42C8
:209A600002D1024800E0024805B0F0BD14FCFFFF15FCFFFF10B5837904005A070DD49B0777
:209A800001D4FFF7D1FF236C2000002B02D0FFF7E9FE03E0FFF7A6FE00E0014810BDC04629
:209AA00015FCFFFF70B5466C86B001AC050001916260A360002E0CD00B4905A8FFF7D2FAB4
:209AC0000C23220005A930000CF07EFA05A80BF0A5FA2B000C3307CC07C30222AB791343F7
:209AE000AB7106B070BDC04643970200642330B504000281438185B08180FFF74FFF022230
:209B0000A379606C9343A371002813D00C490CF028FA051E0ED001000C22103101A80EF0DD
:209B200094FE20000199029A039BFFF7BBFF2800FFF7AAF90122A3791343A37105B030BDE3
:209B400043970200F7B5009308AB1B880400019309AB1D8800230F0016000D4A83800832C7
:209B600083710260C360036143618361C36103621D2124300BF09BFC009BE763266429003B
:209B800020006364019AFFF7B1FF2000FEBDC046D08B020082B0F0B50400A3B064202993F1
:209BA00028920EF02BFD04220C2107A80CF0B4FB2422CE4919A80EF048FE052204A81100D2
:209BC0000DF03FFACA4905A802F066F9A06800F07BFBA568C74916A8FFF744FA782216A968
:209BE000280000F011FC16A80BF018FA6E256420013D0EF003FD002DF9D1A06800F064FBD4
:209C0000A0680BF069FE012160680BF0A1FB0121070060680BF0AFFB06000A200EF0EEFCAB
:209C20000022B54B03929F4210DB013203923A00C8320BDBC822042192000391974205DCD0
:209C400003220392C82F01DC013A0392002202929E4210DB012302933300C8330BDBC8236D
:209C600004329B0002929E4205DC03230293C82E01DC013B02935D2604A80DF0D9F902ABB4
:209C8000F61837007B78002B06D07B1E19783A78FF2304A802F096F8812302AA03379B1824
:209CA0009F42EFD16B4608229A5E6B4604A80C21595EFF2302F086F80023A06800937430FB
:209CC0001A0004A90DF0C4F9731E1B78039A934234D13378029A934230D17778002F2DD12F
:209CE000390020680BF02FFC06F076FF3A00031C290007A80CF05BFB390020680BF035FCA2
:209D000006F06AFF0122031C290007A80CF04FFB390020680BF03BFC06F05EFF2900031CF6
:209D2000022207A80CF043FBFE2329009B05032207A80CF03CFB012301357370812302AA98
:209D400003369B189E42BFD164200EF057FC0B2D00DC58E707A80CF016FB012201000AA8ED
:209D60000CF0DAFA002507A80CF00DFB85423CDA2900002207A80CF008FB0022061C2900F8
:209D800007A80CF002FB011C301C06F069FC2900061C012207A80CF0F8FA0122071C2900DD
:209DA00007A80CF0F2FA011C381C06F059FC311C06F016F92900061C022207A80CF0E5FA05
:209DC00002222900071C07A80CF0DFFA011C381C06F046FC311C06F003F92900031C00223D
:209DE0000AA80CF0E4FA0135BDE707AA1100012316A80CF0F6FA16A90DA80CF051FB16A8F3
:209E00000CF0E6FA0AAA07A910A801230CF0E9FA002310AA0DA913A80CF0E3FA002213A843
:209E200011000CF0B2FA0022061C012113A80CF0ACFA0022051C022113A80CF0A6FAFC21CC
:209E4000071C8905301C06F00BFC06F0A3FEFC21060016908905281C06F002FC06F09AFE54
:209E6000FC21050017908905381C06F0F9FB06F091FE2A000300310018902068FFF712FE34
:209E8000A0680BF029FD05A906A8A5680DF0C8F800221A4B009206A901932800130000F0EC
:209EA00055FA06A80DF0AFF8FA2080000EF0A6FBA0680BF011FD13A80CF08AFA10A80CF0C8
:209EC00087FA0DA80CF084FA0AA80CF081FA05A80DF099F804A80DF096F807A80CF078FA1A
:209EE00023B0F0BC08BC02B01847C0464E97020072970200B7970200E0FCFFFFDC0500000B
:209F0000F0B58360204B85B01F68050001604260002F36D02820FEF795FF040010300BF045
:209F20000CF905232380013363801820FEF78AFF164B06000293002320C6190001901022A3
:209F4000300003930EF09FFC082202A930000EF07CFC0F4B019A210053610023E360C23302
:209F6000A3800023A260236263623B6838005B689847002805D020000BF006F82000FEF7A7
:209F800083FF280005B0F0BD58250020959B0100A7550200F7B50400A37A01229C461023E4
:209FA0000025266F2900F35663449A40F36800920193019B9D4231DAB36872696B436344A2
:209FC0005B00E77AD3181A785878E379012F04D15F1E3F1A10003A000EE0022F05D15F1E85
:209FE000BA1A277A013F381A06E0032F04D1277A013FBF1A020038005B004343606F82182F
:20A00000D3189B79627A934200DD1300627B1A4202D00123AB4019430135CAE71123C94303
:20A02000F356606C994023691940009B19430EF0A7FBA37B072B18D8627B581C52006273FE
:20A040000A499A00A073022B03D888580EF0CBFAA2E7074B2000236300236363054B8958BA
:20A06000E462236414300EF05CF9F7BD588C0200959F0100E755020010B50400044B0360F4
:20A080000EF047F9200004F0B1FF200010BDC046B490020010B504000E4B08330360FEF7D0
:20A0A000D3FF200074300CF0AEFF200060300CF0AAFF200058300AF0B1FF200050300AF020
:20A0C000ADFF2000044B14306361FFF7D5FF200010BDC046408C0200C8900200F8B50025A6
:20A0E0000400324B8580083303608571143016000F0004F065FF20002D4BE5626361256459
:20A100005030FEF7E9FF20005830FEF7E5FF2000603001F051FE20000423F25E33682667B2
:20A12000590009B274300CF08CFF3378226FE3717368012623721023E572A572A78025616B
:20A14000D356916859188B4204DA3000984001330543F8E711230120D356D16859188B4269
:20A1600006DA02009A402669013332432261F6E71420FEF767FE226900212A4301230600BA
:20A1800005F0BEF9FF226272220000230125483266646573A373237320001370A366FEF74A
:20A1A00035FFA37920002B43A371F8BD408C0200C8900200F0B5437A85B00400002B69D0D1
:20A1C0000122837A11009C461023066F0025F35603926344994001912900F3680293029BF9
:20A1E000AB422CDDB36872696B4363445B00E77AD3181A785878E379012F04D15F1E3F1ADE
:20A2000010003A000EE0022F05D15F1EBA1A277A013F381A06E0032F04D1277A013FBF1AD4
:20A22000020038005B004343606F8218D3189B79002B02D0039BAB4019430135CFE7112399
:20A24000C943F356606C994023691940019B19430EF096FA667AB31EDBB2FC2B14D8FEF753
:20A2600083FE0D4B0500236300230C4863630C4BFF21E4622364704305F094FC2900414314
:20A28000200014300EF04DF8637A012B02D820000BF0B3F905B0F0BDFB550200B603000000
:20A2A000E75502001FB5012381881A0068460AF04FFF012303491A0068460AF049FF05B020
:20A2C00000BDC046FE0300001FB5030048331A780400002A0DD000221A70012381881A00D8
:20A2E00068460AF035FF012304491A0068460AF02FFF200074300CF09BFE1FBDFF030000EA
:20A3000010B548300378002B06D00378012B03D0012102480AF0AEFD10BDC046FF03000024
:20A3200010B50121040006200AF0A4FD064B984209D1230048331A78002A04D01B78012B7F
:20A3400001D020BFF5E710BD16FCFFFF73B5079C0500002C09DB060048363078002806D08A
:20A360003078012803D00D4816E00D4814E006981BB2C0B20090280012B274300CF068FE46
:20A380000020844207D02B004A331C8007234C352880337000E0200076BDC04612FCFFFF81
:20A3A00017FCFFFFF0B587B00D9E05000F0002920393002E1EDBFFF7A3FF2B0048331C78CE
:20A3C000E4B2002C18D1390005A80CF029FE0C9B029A009305A9039B01962800FFF7B6FF3D
:20A3E00005A80CF010FE301E07D02800FFF798FF200002E0024800E0024807B0F0BDC046EC
:20A4000017FCFFFF11FCFFFFF8B50400171E09DD060048363378002B06D03378012B03D07A
:20A420000C4816E00C4814E02200E3795632013B137023000025200054331D8050300AF0BF
:20A440004AFE23004A331F80022328004C3425803370F8BD12FCFFFF17FCFFFFF7B50500DD
:20A460000F00161E18DDFFF74BFF2B0048331878C4B2002C12D1390001A80AF024FE320079
:20A4800001A92800FFF7C0FF01A80AF0C7FD2800FFF746FF200002E0014800E00148FEBD3C
:20A4A00017FCFFFF11FCFFFFFF2902D84172002000E001487047C04617FCFFFFF0B51F00F0
:20A4C00085B00AAB1B780400039300933B000D0016000DF0A7FE002832D0237D082B2DD8D0
:20A4E000236800221900FC318A62A021C9005A50154905205A500138C046C046C046C046CB
:20A50000C046C046C046C046C046C046C046C046F1D1236801325A50A0220521D20099503E
:20A5200005F048F9039B3200009329003B0020000DF078FE237D01332375CCE7034800E041
:20A54000207505B0F0BDC046FC0F00000EFCFFFFF0B51F0085B00AAB1B780400039300937D
:20A560003B000D0016000DF045FE002832D0237D082B2DD8236800221900FC318A62A0219B
:20A58000C9005A50154905205A500138C046C046C046C046C046C046C046C046C046C046A6
:20A5A000C046C046F1D1236801325A50A0220521D200995005F0FEF8039B3200009329004B
:20A5C0003B0020000DF016FE237D01332375CCE7034800E0207505B0F0BDC046FC0F0000BD
:20A5E0000EFCFFFFF8B50D1E25D000260227C468002C1DD0AA88A38853403B4216D13A4222
:20A6000003D1AB883B4207D010E0A968A0680BF072FE002804D1F4E7A368AA68934205D1CB
:20A620002B88002B09D022889A4206D0646ADFE72000002E0DDC07480BE06B88002B02D012
:20A6400062889A42F2D1A388034A01361343A380ECE7F8BD17FCFFFF0080FFFFF0B5060087
:20A6600085B00D1E58D00127C468002C19D00221AA8800230A4202D0A3885B083B402268C0
:20A6800029688A4253D1002B06D0A968A0680BF032FE002842D14AE0A368AA68934246D186
:20A6A0003CE0F1682A880F000B1E0CD1F5600123214968460AF04CFD20003AE0586A1F006F
:20A6C000002812D0030018889042F7D318003B000488944209D147886C88A74205D2446A71
:20A6E0000300002C01D02000F2E799420AD10888824204D306D14C886888844202D9696279
:20A70000F56002E0596A69625D6201230A4968460AF01EFD00200CE008480AE0A3881AB23E
:20A72000002A02DA5B045B0CA380054801E0646A9BE705B0F0BDC046FD03000017FCFFFF33
:20A7400016FCFFFF064B10B51A00040008322C33026043600430FEF7A5F9200010BDC0465D
:20A76000788C020008B4024B9C46043808BC604745A7010008B4024B9C46043808BC6047C2
:20A78000195A02000C4A002311002C32083110B5038183724260C3600361436143830160F1
:20A7A00004000430FEF770F9044B1A68002A00D11C60200010BDC046788C02005825002025
:20A7C000F7B50E000125C4680192002C37D0238832889A4201D0002B26D1638872889A42B2
:20A7E00001D0002B20D1FEF7C3F80123002806D0A288BF331340C03B5A425341DBB2019AD8
:20A80000934210D1A7883BB2002B0CDB10223100A0180EF01AF840231F4207D1FEF7A8F8F8
:20A82000002803D006E00025646ACEE720000BF0FCF8F9E721000348FEF74CFAF4E72800F6
:20A84000FEBDC0462B5A020008B4024B9C46043808BC6047B55B0200F0B587B001930EABE3
:20A860001B88060003930D9B0D000093019B02920C9F002B3DD0002F02D1009BDB0738D5B2
:20A880002820FEF7DFFA040010300AF056FC6B461B89258063801820FEF7D4FA0497070098
:20A8A0000500009B10220593019B002108C738000DF0E9FF082204A938000DF0C6FF0E4B5B
:20A8C00002226B610023A5600399E3602362636233680A43A2805B68210030009847002812
:20A8E00008D020000AF050FB2000FEF7CDFA034800E0034807B0F0BDE15B020016FCFFFF17
:20A9000017FCFFFFF0B50400160000258380164A164B85710260218146810573186889B08C
:20A920008C46A8421DD0124A05950492C02202926A4604AB82CB82C2614623002A00FFF792
:20A940008BFF0B4A094B0692C022186802926A4606AB079582CB82C223002A003100FFF734
:20A960007BFF200009B0F0BDBC8C0200582500200B5D020030B5002403730123034D84719E
:20A980000560818082734373846030BDD48C020070B5040000250D4B0E0008338580857189
:20A9A0000360210018300BF068FA2000210020300BF086FA064BA680A571E5712572E560A3
:20A9C0002561656120001C6070BDC046E48C0200602500208379DB0702D5C160002000E06F
:20A9E0000048704716FCFFFF8379DB0701D5C06800E001487047C04616FCFFFF70B54569A3
:20AA00000400002D21D0037A032B20D8FFF7ECFFA8622C20FEF716FA2C22002105000DF0C4
:20AA200032FF0023626953622369002B01D1226105E0596A002901D00B00FAE75A62237A4F
:20AA4000656101332372002002E0024800E0024870BDC04617FCFFFF13FCFFFF154B70B51B
:20AA60005A68154D002A03D000225A600132AA601B69114E002B1CD000210E4B0F4C196153
:20AA80008023DB00F358012B0ED1A923DB00F15820684942FFF79EFF2068FFF7AFFF236895
:20AAA0005A69074BF25002E02068FFF793FF0123AB6070BDFC1000400010004060250020B0
:20AAC0000405000003000069002809D00221054AD167426A1A611A7A013A1A72024B19600E
:20AAE0007047C04604E100E000E100E010B5002903DB024B19600DF0EEFB10BD6425002025
:20AB000070B504001E0004AB1D7804F023FA20000E4B40302360FEF7DFFA230001364C3386
:20AB2000013522001E701D730023E1214E32A3646365138053809381D381013B200063643A
:20AB40004902FFF7D3FF200070BDC046208B020030B5022080250C4B0C4AED009850802014
:20AB60005C59C000002CFAD0A124074DE400295119580029FCD00020034988508021C900DF
:20AB80005A58002AFCD030BD00E0014004050000F0B501250F4C1048A44605518025ED00A6
:20ABA0004459002CFCD080270024FF008025ED009C4207DAA5004E595651C559002DFCD0DB
:20ABC0000134F3E70023624683504359002BFCD0F0BDC0460405000000E0014070B501240E
:20ABE00080260B4B0B48F6001C5080249D59E400002DFAD00A601A59002AFCD00021044AED
:20AC000011508021C9005A58002AFCD070BDC04600E0014004050000F7B580277F053D69E7
:20AC20007C690822113C6C430600210068460DF00CFE104B009A9A4219D000930023019329
:20AC40007969300013396943FFF782FF019A009930000BF04AF921003000FFF779FF796930
:20AC6000AB081339694322003000FFF791FF0198FEBDC046FECA0000F0B50D00ABB00D9283
:20AC800000213022060012A80B930DF0FCFD28000DF039FE431C0C93102B00DDB6E00B9B3F
:20ACA000202B00D9B2E0290030000BF05AF9071E29D129000C9A12A80DF0C7FD0D990B9A83
:20ACC00016A80DF0C2FD80235B051F695A693000113A7A435D690D92FFF79EFF0D9B302282
:20ACE0000833002104001EA80F930DF0CCFD2900133979433000FFF72BFF0F9B0B930023DA
:20AD00000C930E9335E010300B9A0D990DF08EFD04003800FEF7B8F8002C7AD0C9E70B9920
:20AD200030221EA80DF091FD12A91EA80DF0E1FD002822D1384930002200109111940BF0E5
:20AD4000D4F86A460B9B099315AB23CB23C223CB23C223CB23C23000149B1299139A0BF0CA
:20AD6000D8F801230E930B9B30330B930C9B01330C930C9BA342D2DB10E06A460B9B099302
:20AD800021AB23CB23C223CB23C223CB23C230001E991F9A209B0BF0BCF8E4E7E543302120
:20ADA000ED1725404D430F9B5D190E9B002B1BD1B81E04F06DFE84422AD017490134300000
:20ADC0002200109111940BF090F86A46099515AB23CB23C223CB23C223CB23C23000129926
:20ADE000139A149B0BF095F80D993000FFF7B0FE80235B0559690C2363431339023379431E
:20AE00000D9A3000FFF7C4FE002402E0034C00E0034C20002BB0F0BDFECA000017FCFFFF9E
:20AE200013FCFFFF70B50400A280FA22002308000C49920008312160A3716061E260A360B8
:20AE4000638209490BF08DF8051E09D0010020001031022212300DF0F8FC2800FEF714F85D
:20AE6000200070BDFC8C0200C597020030B50225837987B004002B4204D1FDF705FEA37905
:20AE80002B43A37120000BF0B0F800282DD06B46DD1C28000BF0A0F82B78002B03D001A899
:20AEA0000BF098F80FE00122114B1A60114A5368002BFCD000220F4B5A600F4B01321B68CC
:20AEC00001930B4B5A600322019BD9170A40D3189B102382FEF782F8E368A1881818012361
:20AEE000A0601A0002A80AF033F9002007B030BD00C00040FCC0004008C5004010B50400D2
:20AF0000054B0833036018300AF088F8200014300AF084F8200010BD148D0200FF23F0B550
:20AF20002B4C8DB023700023050069460088009303F064FF002802D16B469B782370254EBD
:20AF40003368DB68002B06D1002328881A0019000BF05FF83AE02378032BF5D81E4901A8F9
:20AF6000FEF780F8336801A9DE6804A80AF0ABF804A930000BF022F8060004A80AF04EF8AC
:20AF8000371E1ED031002022103104A80DF05DFC3000FDF779FF217804ABC9005918082270
:20AFA00002A80DF052FC28880123082202A90BF030F80127002804D12888084A0C210BF081
:20AFC00026F801A80AF02AF8002FBDD00DB0F0BD8820002068250020CD970200FFFF00008F
:20AFE00070B504008068002808D0064B1D8801F065F8036815221B6A290098472000FDF7B9
:20B0000051FD70BDF8270020F7B5040000250192C77FAF4254D966197078884202D1152968
:20B0200027D804E0605D2D180135EDB2F1E701228A40264802421CD0D91901201F2943DC79
:20B04000E1193718B94210D80021C8B2834205D9019A7018575C01318770F6E7625D9A1839
:20B060006255E27F9B18E37728E00878C8540139E8E7655D013DEDB2AB4209D10021C8B2FD
:20B0800083421BD9019A7018545C01318470F6E7FF187F1B01201F2F16DC0227A81C7F4261
:20B0A00036187F1BE07F2218964203D23078F0550136F7E7451B023DE57701E0002003E081
:20B0C000019A20000AF0F1FFFEBDC046FC002000F0B585B001930AAB1E880BAB1B78451C7B
:20B0E00002930EAB1B78040003930B78170003704B8A10224382013128000DF0A6FB6B4653
:20B100009B88268363836B461B7B002623776B4601221B7A6761E683EB77A31CDA770C9BC3
:20B120000C256362230020000D9A28331A705E709E702A0031002C300DF0A5FB2000074BA8
:20B14000E663A3632A00310040300DF09CFB2000034B2665E36405B0F0BDC0462D6002000A
:20B160001F60020070B50D0000F0A8FF04000368002D02D15B69984708E09B6898478542E2
:20B1800004D2236820009B6898470500FA2080006843024904F07CFCE08070BD710200004B
:20B1A000F0B507001600A1B002C704006B4918A81D000AF0ACFF331E03D030000DF0A3FB8A
:20B1C00083B201220492002203920292023201920093320018A93800FFF77AFF2300604976
:20B1E000583318A807930AF092FF2B1E03D028000DF089FB83B201220492002203920292E1
:20B200000232019200932A0018A90798FFF760FF23005449AC3318A808930AF078FF269BC9
:20B22000002B03D018000DF06EFB83B201220492002203920292023201920093269A18A97E
:20B240000898FFF745FF631CFF33474918A809930AF05DFF279B002B03D018000DF053FBFE
:20B2600083B2012204920022601C03920292023201920093279A18A9FF30FFF729FF2300CD
:20B280005533FF33394918A809930AF040FF289B002B03D018000DF036FB83B201220492E8
:20B2A000002203920292023201920093289A18A90998FFF70DFF2300A933FF332C4918A85D
:20B2C0000A930AF024FF299B002B03D018000DF01AFB83B201220492002218AD03920292CA
:20B2E000023201920093299A29000A98FFF7F0FE204B1B780B93002B2DD1079B12971393CC
:20B30000089B0DAF1493631CFF331593099B1A4916930A9B380017930AF0F9FE1D214920FF
:20B320003B7810222B707B8A12AE6B8206ABC918C0180DF08AFA06232B756B469B8D2068C6
:20B34000AB83AE6100F0CAFE036829001B6898470122084B1A70200021B0F0BD292A000011
:20B36000242A0000252A0000272A0000262A0000282A00004E2800200A18000070B500253B
:20B380000400094B8580083385710360C1601430FDF7A2FE20001830FDF79EFE034BA56078
:20B3A000256120001C6070BD148D020068250020FA21F0B591B0012305000222890008A867
:20B3C00009F0C6FE2D4C2368DB68002B4FD02C4B1A780193032A4AD82A4904A82F88FDF769
:20B3E00041FE236804A9DD6808A809F06CFE08A928000AF0E3FD060008A809F00FFE02AB62
:20B400009D1D08232A002B8006A9073B38000AF002FE002E08D031002022103108A80DF0E8
:20B4200014FA3000FDF730FD019B2A881B7806A9DD0008AB5D1928000DF0F8F9002813D0F6
:20B44000082206A928000DF000FA236804A9DD6805A809F038FE202308AA05A928000AF0D6
:20B46000B3FD05A809F0DAFD04A809F0D7FD2068002801D00AF084FE11B0F0BD682500200E
:20B4800088200020CD97020010B50C0007290BD8806800F013FE054B195703685B6C9847E0
:20B4A000002802D0024800E0024810BDD898020016FCFFFF17FCFFFFF0B59E4C0D00A54439
:20B4C00004009AAB1B789C4909A805930792FDF7C9FD20002900183009F0FDFDE020C000CB
:20B4E00001F0F8FA0820FDF7ADFC0700002100F0ADFD15AD0021A7600C220EA80DF0C3F95B
:20B500002B000EAA43CA43C38C4B2900EB60002338002B610BF024FEA06800F0CFFD0C22F4
:20B520000021069028000DF0AEF91420FDF78AFC834B2A0015930300C2CAC2C3814B069EB6
:20B54000C3600023A43603613368002B00D003613060A06800F0C2FD0C22002106002800A9
:20B560000DF091F91420FDF76DFC774B1593030086CD86C3754BC36000230361336B002B77
:20B5800000D003613063A06800F098FD15AD0C220021060028000DF076F91420FDF752FC36
:20B5A0006B4B98361593030086CD86C3694BC360002303613368002B00D00361012504AB93
:20B5C0001B7C04AA2B43306008A9280013740AF024FDA06800F092FD03685F495B6A98476F
:20B5E000A06800F08BFD03685C499B699847A06800F084FD002302680093166805992A00F9
:20B60000B047059B002B0AD020000AF0C2FD032805DDA06800F072FD0368DB6898470EA8FE
:20B620000AF03AFD2F2004ABC0180AF035FD362004ABC0180AF030FD3D20042604ABC018C5
:20B640000AF02AFD0EAB0A93A06804AB5E7700F055FD03680AA91B699847A06800F02EFD01
:20B6600003680AA95B6D9847A06800F027FD03680021DB6D9847A06800F020FD0368022193
:20B680009B6D984700212000FFF7FEFE1820FDF7D9FBA16800F0F4F9314B324A1B68A16826
:20B6A0000393314B15A81B680CAD02932F4B00271B680193079B1B689B1900932C4B1268D5
:20B6C0001B68FFF76DFDA06800F0F8FC036829009B6A98470823A0682B80DB186B80AF8038
:20B6E00000F0ECFC03682900DB6A98473100A0680AF019FD099A09219378A06892190AF0EC
:20B7000025FDA06800F0DAFCC8210771A068FFF729FD04AB1B7FBB4204D0A06800F0CEFCD8
:20B720000AF0EBFC09A809F079FC95239B009D44F0BDC046ACFDFFFFD99702003B6002006C
:20B74000B1B30100496002001DAF010057600200856002006560020075B70100A9B7010017
:20B76000702500206C2500200C200020742500200820002013B506226846FDF783FC094BB1
:20B780001C68002C0AD0694601A809F09CFC200001A90AF01FFD01A809F040FC684609F0D1
:20B7A0003DFC13BD68250020002373B501AE0C0031000500019303F021FB002802D1B278CF
:20B7C000064B1A70064B1868002806D061426141044BC9B21D800AF005FD73BD882000201F
:20B7E00068250020F8270020F0B5040097B0029107A89A490592FDF735FC994908A8FDF706
:20B8000031FC22000FAD2800183207A909F072FC08AA290009A809F06DFC280009F0FEFB8C
:20B8200090490AA8FDF71EFCA06800F047FC03680DAE5B69984728000AF02EFC332004AB1D
:20B84000C0180AF029FC3A2004ABC0180AF024FC412004ABC0180AF01FFC04230D9500250B
:20B86000A0687371357100F029FC036831005B6D9847A06800F022FC036829009B6D98474D
:20B88000A06800F01BFC070006000A371F22290038000CF0F8FFFD7730000AF025FC0621D0
:20B8A000A0680AF040FC099A09219378A06804320AF04CFCA06800F001FCC8210571A06896
:20B8C000FFF750FCA06800F0F9FB0581A06800F0F5FB0AF012FC0298FEF7F6FC0AA90CA8DC
:20B8E00009F0F1FB78220CA90298FEF7B7FD0CA809F094FB029920000AF07FFC0423FF2718
:20B90000039504932369DB0735D557490BA800F0C3FA0BA90CA80BF083FB00220CA91300B5
:20B92000019200920298FEF73DFD0CA80BF06BFB039B002B01D1043F00E00437282F03DDD4
:20B940000023FE2F06DC06E0029809F0C5FF0123002F00DC0393059809F09CFD002806D086
:20B96000012322699A431300049A134323610BA80BF049FB00252369049A13422AD0FF2100
:20B980000298FEF791FD0025636902229B5E9D421BDA200029B2143009F0C2FB002301008F
:20B9A00002981A00743000F0C9FAC8208000FDF705F9029809F090FFC820FDF7FFF8022209
:20B9C0002369134201D10135DEE7FA208000FDF7F5F8002502222369134233D008261E4085
:20B9E0001AD022490BA800F057FA0BA90CA80BF017FB00220CA90192009213000298FEF7EB
:20BA0000D1FC0CA80BF0FFFA1948FDF7D7F80BA80BF0F9FA174D15E017490BA800F03CFA5A
:20BA20000BA90CA80BF0FCFA330032000CA9019600960298FEF7B6FC0CA80BF0E4FA0BA8E5
:20BA40000BF0E1FA6420FDF7B9F80C4B01359D4200DC57E709F0AEF954E7C046E797020000
:20BA6000F7970200F9970200079802004C980200983A00008C0A0000899802008B0A0000FD
:20BA8000F0B505000024574BA9B0083303600391A96021000BAB1A1901345170102CFAD19B
:20BAA000012251481A701A1B013C015D5174002CF9D19A7B597B12020A43290045270C3199
:20BAC000029125211B7813AE337002ABFF18C9187282380010220CF0B8FE029B02AA7361C4
:20BAE0000123338333770933FB771DAB1C706D239B181C706E2321009B1874830C22F483F0
:20BB00001EA81C7074620CF0BEFE384B0C22B3632100F46323A80CF0B6FE354B0322F3648F
:20BB2000462302A95B18DA77220034652C73059606AF3B1901345A70102CFAD101232D498F
:20BB40003B703B1B013C0A5D5A74002CF9D111212520BB7B7A7B1B020BAE13433A78738207
:20BB600002ABC9183270C01810220CF06EFE01230398337505ABB361B48300F0AFFA0368BD
:20BB800031001B68984713ABDB8BA868AB8200F0A5FA03680094A98A029ADE680123B047F3
:20BBA000A86800F09BFA02901420FDF74BF906000C2221000CF067FE300001233461082229
:20BBC00020C03900079306940CF03FFE0A4BF360029B9B69002B00D033612800029B9E6143
:20BBE00029B0F0BD2C8D0200F09802002D6002001F600200E09802005D620200002815D022
:20BC0000006041608260C360046145618661C761444604624C464462544684625C46C46294
:20BC2000644604636E46466374468463002A06D0C46B043C043A25681560B442F9D18C6B8F
:20BC4000A6464E6BB546002B06D0CC6B043C043B1D682560B442F9D10C6BA446CC6AA34643
:20BC60008C6AA2464C6AA1460C6AA046CF698E694D690C69CB688A68086849687047006036
:20BC800041608260C360046145618661C761444604624C464462544684625C46C4626446CA
:20BCA00004636E46466374468463C46B043C043925680D60B442F9D1C7698669456904697F
:20BCC0007047006041608260C360046145618661C761444604624C464462544684625C4643
:20BCE000C462644604636C4644637446846304697047846BA646446BA546046BA446C46AF3
:20BD0000A346846AA246446AA146046AA046C769866945690469C368826800684168704764
:20BD200010B5041E0DD00CF0EEFD230001382018834208D21A780178013819704270013372
:20BD4000F6E7024800E0002010BDC04617FCFFFFF0B585B001900C1E28D00027C217161A1B
:20BD600056407D1C631902933000013B0A21039303F0FEFFCB17C9185940039B3031197082
:20BD800030000A2103F00EFF061E01D02F00E8E7019B002B03DA2D23029ABD1C1370002643
:20BDA00020006655FFF7BCFF300000E0014805B0F0BDC04617FCFFFF014B03607047C046B9
:20BDC000388D020030B504686088814206DAA588AA4203DA002901DB002A01DA034804E091
:20BDE0004243601880188371002030BD17FCFFFFF0B5070085B00E001D0000291FDD002B40
:20BE00001DD00468638803938B4200DD0391A3880293934200DD0292002306340193019B77
:20BE2000029A93420DDA29002000039A0CF00DFD3B68AD195B88E418019B0133EEE7024887
:20BE400000E0002005B0F0BD17FCFFFFF8B504000D0016001F00002901DB002A02DA0D4B19
:20BE6000236016E0100048430630FCF7EBFF206009F0BBF923685D809E80002F06D03B00A8
:20BE8000320029002000FFF7B3FF02E020000BF0CFF8F8BD388D0200F0B5060087B00C1E33
:20BEA00005D000200F0005000190010015E0224B03603EE03022524294469C446246092A89
:20BEC00014D90A2B0DD1019B2D1801330193A94200DA29000020050001373B78002BE9D1D6
:20BEE00006E00028F8D001350020F5E70120F3E76A46928809B212B23000FFF7A7FF33688F
:20BF00009D1D03AB1F002278002A12D011003039092902D81A70013309E000221A70BB421E
:20BF200005D938000CF071FC3B00287001350134E9E7300007B0F0BD388D0200F0B5040070
:20BF400087B004A815001E000F00FCF703FF23685A88954208DA9B88B34205DD1F2F03D97D
:20BF6000059B00939F4201DD18482DE0052300217B430093049B0193009B019ACB18A03BA1
:20BF8000D35C0022029373189C465319276803937888834202DABB889C4507DB0132052AB4
:20BFA000F3D101310529E7D100200DE0634658435319FB18102717411B1802980740781E9C
:20BFC00087417F429F71E9E707B0F0BD17FCFFFFF7B5036806009C1D5B880D005A1A0192B6
:20BFE000002918DD0027994202DB0BF021F814E033689B889F4210DA6119019A20000CF082
:20C0000024FC019B2900E0180BF004F8336801375B88E418ECE7024800E00020FEBDC046BC
:20C0200017FCFFFF10B50548054C206009F0E0F8044A054920000CF0C4FB10BD388D020030
:20C04000782500200020002007700200002370B504000160436099420AD1064D2B68002B53
:20C0600002D10BF0AFFA286023689B00EB586360200070BD8825002070B500280DD10C4CF8
:20C080002668002E07D108300CF0A6FB05003100FFF7DCFF2560206808E00122054906487C
:20C0A0000B68134002D1026043600A6070BDC0467C2500208C25002080250020436810B57E
:20C0C0000400002B02D104480CF0E0F9606803681B69984710BDC04600990200436810B5C9
:20C0E0000400002B02D104480CF0D0F9606803689B69984710BDC04600990200436810B539
:20C100000400002B02D104480CF0C0F9606803685B6A984710BDC0460099020000487047D8
:20C12000FFFF0000F0B597B00593036807AD1B680491039311002B00060091C991C300249C
:20C14000D36821000C220CA8EB602C610CF09BFB21000B4B10940F9311AB1C701A190134CA
:20C160005170102CFAD100225A820193059B2A00009304990CAB3000039CA04717B0F0BD8A
:20C18000AD720200FC3070B5046C0500002C0DD124200CF021FB064B44608361054B846045
:20C1A000C46004614461C46103602864286C70BD148E0200FC8E0200FC3070B5C56B0600C5
:20C1C000002D16D134200CF007FB0400342229000CF059FB084BA5606360084B656123616E
:20C1E000074B2562E361074BE562A362064BF4632360F06B70BDC046448E0200348E020033
:20C20000A48E0200B48E0200C48E02007FB503791548002B26D0154D154C2B782000002B73
:20C2200020D102AE30000BF01EF8002814D17388592B11D13378B288D91F012902D800923B
:20C240000C4A01E000920C4A2021200008F02EF801232B70200005E02022084920000CF0CD
:20C2600059FBF7E704B070BD239902004F280020502800203D9902005A9902007F990200D7
:20C2800010B50400024B08C00BF07FF8200010BDB48E020010B50400024B08C00BF075F8D7
:20C2A000200010BD548E020010B50400024B08C00BF06BF8200010BD448E020010B50400E7
:20C2C000024B08C00BF061F8200010BD348E020010B50400024B08C00BF057F8200010BD2F
:20C2E000248E020010B50400024B08C00BF04DF8200010BD648E020010B50400024B08C0AD
:20C300000BF043F8200010BD148E020010B50400024B08C00BF039F8200010BD688D020068
:20C3200010B50400024B08C00BF02FF8200010BD588D020010B50400024B08C00BF025F833
:20C34000200010BD488D020010B50400024B08C00BF01BF8200010BD788D020010B5040070
:20C36000024B08C00BF011F8200010BDA48E0200FC3070B5046C0500002C0DD124200CF073
:20C380002BFA064B44608361054B8460C46004614461C46103602864286C70BD148E0200C4
:20C3A000FC8E0200104B10B5083303600F4B0400C36080230E4A5B00C250C018FDF75CFE24
:20C3C00020000C4BB830E360FFF7BEFF2000AC30FFF79CFF2000A030FFF7A2FF20006C3038
:20C3E000FFF7A8FF200010BD288F0200708F0200C8900200888D0200F0B50500040087B0A3
:20C40000AC356B68AB60AE68002E08D0F368210030009847AB68002BF3D01B69F2E7200038
:20C42000B0300AF0B2FF2200FC235832117820000B40137023005C331E700A300BF0B9F809
:20C44000200034300BF0B5F8200064300AF09DFF200098300AF099FF200001ADA4300AF050
:20C4600094FF31000C2228000CF00DFA23002A006C3383CA83C3094BE667A3670C22310016
:20C4800028000CF000FA2300803307CD07C33000034A90341A60266007B0F0BD9172020060
:20C4A00083720200454AF0B50600C260A022444B16360833036001000023428204003200D0
:20C4C00085B0037183600374838235311370013200259142FAD1802780222000D201BF007A
:20C4E0001100F57737842B000095383000F010FF23002100403303931A002B005F31137038
:20C50000013200258A42FAD1039B2200DD77230060331F80FC236432117820000B40137097
:20C52000230068331D70274B2900E36625670C2278300CF0A8F92300270088331D60224BDE
:20C540000837FB67843729000C2238000CF09BF91E4B1F4AFB602300A0333D611A601D4ABE
:20C560005D60DA601C4A1D619A61DD6130000BF020F803980BF01DF8184B601CE360230074
:20C58000C4331D705D709D70FF3002F019FD8C235B00E55023001933FF335D618023104A6B
:20C5A0005B00E250230001222000FE3352425A86023B9D63DD631D6405B0F0BD888D02006C
:20C5C000288F0200488D02009172020083720200588D0200688D0200788D0200708F0200E9
:20C5E000C890020070B5074C2368002B07D1A02040000CF0F1F80500FFF754FF256020689B
:20C6000070BDC0469025002070B50C220D00002104000CF038F900232361024B25602000C7
:20C62000E36070BD9F72020070B500250400264B05710360254B45718360254BC56043619D
:20C64000244B85610362244B4562C362234B05638363C56329004430FFF7D6FF2000290050
:20C660005830FFF7D1FF200029006C30FFF7CCFF1B4B220023602300F832803320C3934203
:20C68000FCD126001D00E936FF3628000822002108350CF0F8F8AE42F7D18E2233000020DF
:20C6A0009200A11801C300229942FBD18E239B00E2540C490C4B6118E3181A800233994256
:20C6C000FBD1200070BDC046748E0200248E0200348E0200448E0200548E0200648E020013
:20C6E000FC8F0200620200003A02000070B500200C00FFF777FF03685B6A98472378142B67
:20C7000017D002D8132B05D03FE0152B18D0222B35D03AE064680122A37819005D081140B9
:20C720002A404568DB065B0F002D2ED02088A8472BE08368002B28D06268917810881CE055
:20C740006468A27813091207120F012A02D0022A08D00DE0013BDBB20021022B09D80C4A61
:20C76000D15C06E00421012B03D00131022B00D00021C368002B08D02088984705E003692C
:20C78000002B02D0626810889847002070BDC04687990200014B18787047C0467128002094
:20C7A000F0B51E002F4B87B0009201931A78002305000C009A4252D101F098FA002801D09E
:20C7C0000B234CE0002E0ED003A9222003960AF06FFF002807D00623082840D011384342CE
:20C7E000434104333BE0002302AA1000137001F009FF011EE4D101261B4F35403A78344008
:20C80000B2432A436300022514000720009AAC4302401C431C23AA409C4314433C7003AC0D
:20C820000C2220000CF02FF80920104B3900039302AB0522C01825710CF007F821000C4882
:20C8400001F04CFF002807D00723042807D0013B082804D0053302E0019B1E7003001800D1
:20C8600007B0F0BD7128002089200020EDC601007028002010B5074801F0FAFF002398426B
:20C8800006D00733042803D0013B082800D00533180010BD70280020002373B501930F4B3F
:20C8A00001AD1B780E0029002B7002F0A7FA041E04D0042305280FD007330DE03100280029
:20C8C00001F046FF2300002806D00723042803D0013B082800D00533180076BD7028002061
:20C8E00073B5104C0E0005000522210068460BF0ACFF012E06D0022E11D1012223781343DA
:20C90000B34303E002222378B34393436946280023700AF0CBFE031E02D00B2300E0022360
:20C92000180076BD89200020094B10B51A7801000923002A09D0074801F042FF002398428A
:20C9400003D003330E2800D00333180010BDC0467128002070280020F0B58DB0050002F05D
:20C960008DF80020FFF73EFE036807001B6998473B6804009B69380098473B6806005B6ADB
:20C98000380098470300288810380B2800D998E003F074F8063D9797975A97979761977310
:20C9A000AF88200039000BF02AF822006B7B583201931378A87919000223194306AB11702C
:20C9C0001F80012306AA9370D07013006A461279E91D9A722B000622163307A80B930BF05D
:20C9E00034FF29000B2006AB06220E31C0180BF02CFF94346368A360A068002861D0C36878
:20CA000006A99847A368002BF4D01B69F3E720002F49AF880AF0F3FF22000220583213781C
:20CA2000A9798343137006AB1F809970A0346368A360A068002844D0C36806A99847A36888
:20CA4000002BF4D01B69F3E75B69A91D002B38D0A888984735E0636EAF79002B31D0A3667A
:20CA6000A06E00282DD0C36839009847A36E002B01D1636EF3E71B69F1E701220D27AB7BAE
:20CA8000E91D1A4001925A07920FDB08029206A80622EF5704930BF0D8FE6A46127906ABBA
:20CAA000DA716A46127A9F711A726A46127C20005A722B008C340F3309938030236806A976
:20CAC0009847290030000BF08DF80DB0F0BDC046FFFF00000723D72802D9024B1860002344
:20CAE00018007047942500201FB5A3238022DB00D205D3580820DB0700D405301E4B48228F
:20CB00001E4900F0C1FC00280AD080B2002807D1BFF34F8F1A4A1B4BDA60BFF34F8FFEE7C4
:20CB200002AC0822002120000BF0ADFE01232370154B20001B6863600AF0D2FD002801D0F7
:20CB4000072017E068460AF0C9FD0028F8D169460AF0C2FD0028F3D10C4800F0C5FC80B2CD
:20CB6000002807D10A4800F0C9FC80B2002801D100F04CFB04B010BDEF7602009825002086
:20CB80000400FA0500ED00E09425002059C90100E776020080B2002807D1BFF34F8F034A5B
:20CBA000034BDA60BFF34F8FFEE770470400FA0500ED00E0024B0B60092313607047C046DD
:20CBC0008A99020010B504000020FFF70BFD03681B6998470300F3331C7086235B00C050B2
:20CBE00003000021044AFC335A61044A99615A62F4300BF096FB10BDC1780200D3780200D0
:20CC0000012110B5044A080000F0C8FB031E00D00B23180010BDC046C5CB0100F0B593B0A1
:20CC2000019000200C00FFF7DDFC03685B6A9847FFF7B0FD06AB00280DD000221A7105AAA4
:20CC40000692082218001A730AAA9A60FFF76CFE002802D052E01871187300231F00237347
:20CC60002371019BBA331B78BB4246D907237B43019AD218BB321278022A31D1002506AEFD
:20CC8000337BAB4236D907207843AB000293019BAA001818089BBB3099580AF00BFD0028A9
:20CCA0001BD0B368AA009A58237BA1689B005A50237B01332373337B5A1E954208D0104950
:20CCC000B2685B189B009B5803930399029BD15006AA137B013B13730CE00135EDB2CEE7D3
:20CCE00001992279CB182168BB33920053502379013323717B1CDFB2B3E7002013B0F0BDBA
:20CD0000FFFFFF3FF0B59DB01F006B4605001A70581C0622229E02AC0BF097FD002F07D0E7
:20CD20003B8823807B886380BB88A380FB8806E032232380DB186380F533A780FF33E38026
:20CD40000CAB04A9049314AB8B602F000023B9370B710B733B78002B17D101203B7802272F
:20CD600008A903405A000B78BB4304AF4F601343002E10D0B2798343024013430B7033885F
:20CD80000B8173884B81B38811E02800FFF746FF0028E2D029E02A003232127883430240AE
:20CDA00013430B70AB8D0B81EB8D4B812B8E220068468B810AF0BDFC03000020834214D086
:20CDC0000630082B11D005D80130042B0DD0834208D109E00520112B07D0054A934203D039
:20CDE000102B01D00B2000E004201DB0F0BDC04602320000F0B50A7804009BB00D0002209F
:20CE0000012A44D04B88032A06D1A03B21499BB210008B423BD805E0203B1F4A9BB2032061
:20CE2000934234D81D4BAA8803209A422FD80AAB009312AB02936A460023260013711373D4
:20CE4000B8363378002B05D069462000FFF7E6FE00281CD104AF1822002138000BF013FD2A
:20CE60002B7838003B7033783B726B46FB606B883B82AB887B820AF046FC02000320002A5D
:20CE800005D101211000583423780B4323701BB0F0BDC046603F0000E03F0000FF3F000008
:20CEA00013B504680093A46813000A000149A04716BDC046FFFF000037B506AC25780468D3
:20CEC00001950093246913000A000149A0473EBDFFFF0000F0B589B0019307000FAB0D0015
:20CEE00016000021082202A81C780BF0CCFC0EAB1B8802AA1380019B0393002C06D03100D0
:20CF000028000AF084FD002841D154E03B007A79F833A2423DD90833190008390988B14294
:20CF200008D130222034A400E3590133DB7F134202D12EE00134ECE702220020DB06DB0FB7
:20CF400004ACD31AA370019B2680E3600EABA3601A4BA0809D4207D1FFF744FB03681B6980
:20CF600098470AF04FFD0500210028000AF053FD80B200281FD011281CD013D8082817D084
:20CF800002AA310028000AF042FD002812D0032011E002AA310028000AF039FD0028F6D111
:20CFA000063008E0064B984204D0064B9842E7D1062000E0052009B0F0BDC046FFFF0000DC
:20CFC0000330000001340000F0B5050097B008002E240B9100F046F904ABE4181090220066
:20CFE00010A901200AF011FD002801D00320D4E023880B9A0A9093830B9B0A9A1B7D9342C8
:20D0000050D96B791D2B01D90720C6E00B9B9B690C930A9B0C9A9B009C586369002B46D1E3
:20D02000638B002B43D1631CDB7F022B3FD134E06979A31C1F31C9006918621CDB7FD27F35
:20D04000089121002A3109780020079121002931097806910D9905910C990491217F039145
:20D06000218B0291618B01916169009110A90AF0FAFE0028BAD16B7907001A002032920051
:20D080001F335451DB005B5BE3836B7901336B71230028331B78BB4237D80A980130C3B249
:20D0A0000A93A9E72B79002001332B7175E0200000F0D8F8002610900D960C9623002833F1
:20D0C0001B78B342B4D9626AB3009F58342204AB9B1800221A700023002111AAD218013344
:20D0E0005170102BF8D1462204AB9B182C4A11A938001A800AF012FD002803D07B690C9318
:20D100007B8B0D93731CDEB2D8E78E239B00EB5C132B00D978E7626ABB009E5800231800CA
:20D1200011A90B70CA1801335070102BFAD11C4B30004B820AF0F2FC0C9000282AD13000A3
:20D1400000F090F88E229200AA5C738B1D32FF325200AA1802320292327F10900192328B14
:20D1600010A9009272690C980AF05AFF002800D03CE78E238E219B00EA5C8900531CDBB2B1
:20D180006B541D337A32FF3392005B005651EB185B88F383781CC7B27AE717B0F0BDC046CA
:20D1A0000129000070B505000AF031FA041E1CD128007822210080300BF065FB2800E930B8
:20D1C00050222100FF300BF05EFB280008222100F8300BF058FB064B2822E81821000BF099
:20D1E00052FB8E239B00EC5400E00624200070BD3A0200000B68002B01D1036002E0024BC1
:20D200000360002343607047E57602001FB502AC0822002120000BF036FB2823238069332E
:20D22000FF336380E380803B01A8FF3B05220C4903700AF0F9FD80B200280FD1802080009F
:20D240000AF0EEFD80B2002808D120000AF0EAFD80B2002802D10AF0E1FD80B204B010BDFD
:20D2600093990200F0B5438A87B00293037804000126002B3ED0244B24491A68039311233B
:20D2800001929C4600228519019B934214D0674600235743CF19981E012803D9FE5CE85C59
:20D2A000864207D10133102BF5D111235A4389180E7C1FE00132E7E728000AF0BDFD237826
:20D2C00007000600002B01D112342500019B042B10D011245C430D4B10221C192900200052
:20D2E0000BF0B3FA0023A370E370019B039A01332774136005AB9E705888029B00040343FD
:20D30000180007B0F0BDC046E025002072280020F7B5FA26B6007143009308AB1B78040099
:20D32000080015491700019302F0B2FB85B2300025807843104902F0ABFB6B461B8880B2FF
:20D34000A3806B461B796080A371032D01D80423238080232288DB019A4200D923800328F2
:20D3600001D80422628062889A4202D98023DB0163802000FEBDC046710200000120054A05
:20D3800010B513785840044B10701B68002B00D0984710BDB6280020E42500200C4B70B509
:20D3A000050015200C001A600AF0BDFE00280ED1290015300AF0B9FE002808D115300AF092
:20D3C000B0FE002803D1210003300AF0B0FE70BDE4250020F0B5274B85B01B78002B47D030
:20D3E000254D264E2B6834685A425341DBB2009363425C41E4B2009B002B37D103A80AF07D
:20D400009AFE05280AD0002804D000221100FFF7C1FB05E003982B68984701E00123009302
:20D42000002C1FD1164B03A91B8801240B80154B1B68180001930AF084FE070005280BD056
:20D44000002805D000221100FFF7A4FB002403E00198336898473C00009B002BCED0002C21
:20D46000C9D005E0009B002BC8D001E0002CD9D005B0F0BDB7280020EC250020F025002053
:20D48000FA270020E825002070B504000720002913D08D0711D109480160094920000A809E
:20D4A000084A094913600AF048FE002805D10122064B16301A700AF03CFE70BDE825002045
:20D4C000FA270020F425002047810200B728002010B50AF034FE03005A1E9341014ADBB2F1
:20D4E000137010BDB72800200E23002802D0024B1860002318007047F02500200E2300286D
:20D5000002D0024B1860002318007047EC250020074B10B51B68002B07D09847002806D0D8
:20D5200000221100FFF736FB01E0FFF753FF10BDF425002010B5064B586980235B05421C2A
:20D5400004D0196989B202F0A3FA00E0586910BD00100010034B10B51B78034A9B009B589C
:20D56000984710BDB8280020249002000B0037B50C24020018009D6809786C43044D08304A
:20D580002D680095034D1B696459A04737BDC046402600202C26002080225205116914224E
:20D5A00010B50E4889B203785343C3181A69501EDA881B898018C01802F06AFA084B020017
:20D5C0001B6801209A4207D800209A4204D1054B1B6858425841C0B210BDC046F825002093
:20D5E0002426002028260020082310B5034A116899431160FFF7AEFF10BDC0463C26002058
:20D60000094A10B5136819070AD4990702D501210B4313600222054B1A70FFF79BFF01E0B0
:20D62000FFF7E2FF10BDC0463C260020B8280020064B10B51B681B0705D40122044B1A702E
:20D64000FFF788FF01E0FFF7CFFF10BD3C260020B828002010B5002814D0112805D108234E
:20D66000094A11680B4313600CE01423074A1178594351180431FFF779FF0422044B1A7079
:20D6800000F092F810BDC0463C260020F8250020B9280020F8B514238025124A6D0514789A
:20D6A000114E5C432B691419E2889BB2278920699A420ED92B6961699BB2D31A2A6938187D
:20D6C00092B2C918C01892080AF047FD2B699BB205E09208381861690AF03FFDE3883360C7
:20D6E000F8BDC046F82500204C26002070B58025094B6D052A691C68631E94B25C43FFF79D
:20D7000019FF2B69411E9BB25943044B20001A680AF023FD70BDC0462426002048260020DF
:20D72000142270B580260E4976050B785343CB181A89DC881B69A4183169E418200089B2E2
:20D7400002F02CFA0D00FFF7F5FE3369411E9BB25943044B49191A6820000AF0FEFC70BD63
:20D76000F82500202826002010B5FFF7E3FE8022074C520513691169126924689BB292B288
:20D7800089B201389208614358430AF0E6FC10BD2426002010B5034B18680AF0DCFCFFF7CE
:20D7A00059FF10BD24260020F0B52B4B85B0187803284ED802F062F9020E114B0023274A5C
:20D7C0001360274A1360274B5B78002B41D000F0F9F83EE0FFF75EFF3BE0234C8027236863
:20D7E0007F0501930123019A9A431423226002921C4A3969157889B25D4355192B6918009E
:20D80000039302F045F9194B039A18603969EB880600501E181889B202F03AF9864203D114
:20D820000223029A134303E00323019A9A43130023600F4B1A680F4B002A03D121680232C9
:20D84000114200D000221A70FFF784FE01E0FFF7A1FF05B0F0BDC046B92800204426002017
:20D860004C260020F82500203C2600202426002048260020B82800201422F0B580254B494B
:20D880004B480B7885B05343CB18DF68083A7A43821814895089526860436D058218296973
:20D8A0001C890192DA881E6913199B19009300230292404A89B21360300002F06FF93D4BD3
:20D8C0002A00039300290BD12B6902999BB2994208D0019B00998B424FD1002C59D101E0FB
:20D8E000022F08D11169300089B202F0D1F8324B186003233BE02969301989B202F04EF9F9
:20D900002E4B89081960009A019B296993422DD089B2009802F042F9002927D080246B4675
:20D9200064052169988889B21F8802F0B1F826690500B1B2380002F0ABF8ADB280B285423B
:20D9400008D16B466A469B8812889B1A039A9B0813600BE023692169380089B29CB202F0B4
:20D960001DF989B2641A039BA4081C600223144A1370FFF719FF05B0F0BD022FB2D0296957
:20D98000301989B202F00AF90C4B890819602969BEE7022FA6D02969301989B202F0FEF8D1
:20D9A000064B890819602B69E0E7C046F82500202C26002028260020242600204826002096
:20D9C000B9280020142210B50A490B785343CB18D988094A1B791160032B08D0042B06D038
:20D9E000012B06D1054A1370FFF7DEFE01E0FFF743FF10BDF825002040260020B9280020D6
:20DA0000F7B5124D01936E7808AC27880424022E1AD02C78A419012C00DD023C14235C435D
:20DA20002C196261220020710C3209C909C26B469B882781E3800024054B01361B786E7055
:20DA4000A34201D1FFF7BEFF2000FEBDF8250020B928002070B51424114D00202978614323
:20DA600069180431FFF782FD23000022012029784B43EB181A71DA80D8601A615A611A81F5
:20DA80006B780918013B6B70CBB2022B01D02B7000E02A70034B1A70FFF786FE70BDC04656
:20DAA000F8250020B9280020142210B507490B785343CB181B79042B02D0FFF7CBFF04E0A8
:20DAC0000122034B1A70FFF76FFE10BDF8250020B9280020F8B508241D4F3D682C4022D194
:20DAE00080235B0519691B4B1E68002E1ED01422194889B203785343C3181A69501EDA8888
:20DB00001B898018C01801F0C3FF144B1B6898420CD1134B1C6001231D43124B3D601C70C1
:20DB2000FFF718FD13E0FFF75FFD10E0FFF734FD002804D000220A4B1A60023202E0002E4D
:20DB400003D00322074B1A70EAE7FFF7ADFFF8BD3C26002028260020F82500202426002032
:20DB600048260020B8280020054B10B51B681B0702D4FFF799FF01E0FFF736FD10BDC0461C
:20DB80003C26002070B5154D2C68230723D4144A136801331360134B04221B68002B04D140
:20DBA000FFF7FAFC002802D002220F4B0CE00F4B1B68002B0CD0012122000B4B0A4002D17A
:20DBC0000C432C6000E003221A70FFF7C3FC04E0FFF76AFF01E0FFF707FD70BD3C26002059
:20DBE0002426002048260020B8280020282600201E4B10B51B78022B30D0032B19D0012B8E
:20DC000032D108211A4A13680B4222D1142319490A785A43184B8A181968D3885B1A9BB25E
:20DC2000D380002B02D1FFF715FF1DE0FFF732FD1AE008210E4A13680B420AD10F4A136875
:20DC400001331360FFF7A8FC002804D1FFF72CFF0AE08B431360FFF7A7FD05E0084B094A15
:20DC60001B789B009B58984710BDC046B92800203C260020F82500204C2600202426002015
:20DC8000B82800203890020070B5144C042522781300AB4321D002281DD003281DD1104BF5
:20DCA0001B681B0717D40F490B6801330B60032B04D0022A0CD1FFF74DFC0EE014230A4AA7
:20DCC0000D201178594351180431FFF74FFC2570FFF76AFD01E0FFF78BFF70BDB928002092
:20DCE0003C26002044260020F825002010B501220024164B1C705C701C71DC80DA601C6176
:20DD00005C611C811C765C831A625C629C629C830F4B1C80FFF70EFC802304225B051B693E
:20DD200002389BB258430B4B18600B4B20001C600A4B1C601C815C81094B1C70094B1C6006
:20DD4000094B1C60094B1A6010BDC046F8250020FC27002038260020242600202C26002078
:20DD6000B9280020442600204C2600203C260020F7B504222C4B04001B680E0008201342A9
:20DD800051D00630002C4ED000294CD02368002B49D080277F053A69A38892B2934201D9E2
:20DDA000072040E00F2BFBD9E288002AF8D01F4953430D685B190093FFF7BCFB3B690138AE
:20DDC0009BB25843194B0193009B8342E8D8A3889C469B07E4D1164B04201F88012F22D091
:20DDE0000C237B43134A2068D118985063468020376075604D600B81E288400503694A81AC
:20DE000001690469604650439BB2C018013889B201F0C8FEA4B2604345190020019B013757
:20DE20001D60034B1F80FEBD3C26002038260020FC2700202C260020104B30B51C68082319
:20DE4000640719D50633002816D0002A14D00368002B10D10A4D2C68002C0CD02C8940684D
:20DE6000614309186889444368682418A14202D21360516000E00723180030BD3C260020ED
:20DE80002C260020F0B504001B4885B0056808206D072ED5063000292BD0002C29D02568B7
:20DEA0000738002D25D1154D2E68002E21D0666803962E896F896D687743BC46039F6544F7
:20DEC000AF4216D2002A14D0964212D3D518AE420FDB0325093029420BD12E002B4208D1BB
:20DEE000374206D100930F3813000A002100FFF787FD05B0F0BDC0463C2600202C260020E4
:20DF0000F0B504001B4885B0056808206D072ED5063000292BD0002C29D025680738002D3C
:20DF200025D1154D2E68002E21D0666803962E896F896D687743BC46039F6544AF4216D209
:20DF4000002A14D0964212D3D518AE420FDB0325093029420BD12E002B4208D1374206D1C3
:20DF600000930C3813000A002100FFF749FD05B0F0BDC0463C2600202C260020F0B5170038
:20DF8000224A85B0126802900E009C460824530739D50634002936D0002834D00C68002C1B
:20DFA0002ED11B4D2A68002A2AD04A68688929896B684843C018824222D2002F20D0B942E7
:20DFC0001ED36346F81881421ADB0321029B0B4218D163460B4215D11140039112D162449E
:20DFE000110002983A000AF030FC0C233268009753430221ED58039A029B3000A84702E07D
:20E00000072400E01024200005B0F0BD3C2600202C260020F0B51F4B85B01B6805000E0071
:20E0200008245B0733D50634002830D00368073C002B2CD1184B1A68002A28D01A894768B9
:20E04000029258685B8953431B1803939F421ED20934BB071BD1381A110001F09FFD093C38
:20E06000002914D10299300001F098FD89B200290DD1002E0BD0039AF3199A4207D3002275
:20E080003300009229000320FFF7BAFC0400200005B0F0BD3C2600202C260020F0B50E781E
:20E0A0008FB0002E00D097E0514C02AB9A1D21000823058813803431073B28000AF065F819
:20E0C0004C4B1B689847B1200AF061F8002803D032003100FEF75EFD0AF05BF8002803D02D
:20E0E00000221100FEF756FD434E70690AF053F80196002803D000221100FEF74BFD0023D1
:20E100003E4E28003100049300F078FE051E4CD108A93A4800F01EFC071E33D10C9D0722A5
:20E120002900200010310AF090FB29001022E01D0AF08BFB2000089D1122290018300AF095
:20E1400084FB200029002A3012310A220AF07DFB20000AF022F8002803D03A003900FEF725
:20E1600019FD0123002404930333069305A904AB22480793059400F0A7FBA04215D0220066
:20E18000210010E02100300000F0A2FB002803D02A002900FEF7FEFC200009F0FEFF002815
:20E1A00003D000221100FEF7F5FC8021C022144BC90352009950196801200023114C020066
:20E1C0009A40114200D0E2670133202BF7D1019B58690AF009F809E00322012100F032FE0A
:20E1E000002803D000221100FEF7D4FC0FB0F0BDFE2700201020002000100010BA28002009
:20E2000000E100E004E100E0F0B58BB004AB9C1D0E230C220390019123804B7806A9534301
:20E22000234AD31818892200032309F0C1FF00283AD11827019B1F4D5B7826885F430093B4
:20E240003B000833EB18320006A9180002930AF0EDFA2C0000280DD10C22009B5343144AE7
:20E26000D318997A022319401ED1E81918220AF00AFB19E0E81943680F4F002B00D10F4F9C
:20E2800018250322009B06A96B43E250E3185E60320002980AF0D9FA019B2A00597803986E
:20E2A000694338236118B84700200BB0F0BDC0463A2800201427002001DF010085DE01002F
:20E2C000F0B585B004000E0002AA81782148FFF7B3FD00283CD10C2361781F4A4B43D3187F
:20E2E0009B7A01921D4F5B0605D4022E03D01C4F012E00D01B4F1C25A1781B4B69432A0063
:20E30000591802A80023B847002813D1022E1FD00C234021627802A85343019AD3189A7A51
:20E320008A439A726178114B69432A0059182B00B84701E0022E0BD00C23227821005343F2
:20E340000B4A02A8D3189B7A0A4A9B009B58984705B0F0BD3C2700203A28002001DF0100B5
:20E3600085DE0100B581020050260020F82600202C2700205C900200F7B51822019043789A
:20E3800026485A4381184C68254F002C0FD00C2159437918897A4DB2002D07DA490605D414
:20E3A00015000835A6B24519145802E00024260025000C225343FB181889320023002900A2
:20E3C00009F0F4FE0B2816D10C22019B29005B785343FB1818893200012309F0E7FE0C21C7
:20E3E000019B104A5B784B43FF18388909F0DCFE002806D111E0002800D00B48012C0CD1D6
:20E40000EDE70222094BC318934305D0082803D0112801D0002000E00348FEBD14270020BC
:20E420003A280020FFFF000041800000FECFFFFFF8B507004878182403006343084D0E0014
:20E44000E818220038233900FFF798FD002806D173785C432C196368013300D16060F8BD68
:20E460001427002070B51C2444430D4E0500301906223419002111300AF005FA1022002189
:20E4800020000AF000FAFF232374A376013BFF3B23830233AB40034A11689943116070BD1A
:20E4A000502600203827002037B581B205006A460748FFF7C1FC041E08D154216846FFF75D
:20E4C000A9FD041E02D12800FFF7CCFF20003EBD3C270020F0B51D00434B93B01B68019073
:20E4E0000F001600002B7CD0189B542B79D8FF22002403AB5A709A70DA701C7002AB1C7423
:20E50000189B0B950A93A1B204AA3848FFF794FC002809D1082204A901980AF087F90028F0
:20E5200002D103AB9C7002E00134062CEBD103ACA178FF2955D0032F0AD1189A06AB542A46
:20E5400001D1343A00E040221A701A7803213AE0274BEB1AA72B10D8264B002E04D1012217
:20E560008A40186810423CD001228A40196891432022196006AB1A7020E01F4BEB1A1B2B06
:20E5800009D8202206AB1A70002363700CAB0B9318230A9312E019482D1A172D21D83023D0
:20E5A00002AA1374002363700133E370144B997A0223194002D118220AF065F906AB022F74
:20E5C0000CD101211A780A431A7009AB0793064B32001B6806A92000984702E01A7802213A
:20E5E000F1E713B0F0BDC0462C2700203C2700205026002038270020F82600201427002029
:20E600003A280020F0B5040085B0002852D000252A4B2B481D605D729D7201238372023B92
:20E62000072229000381C3720AF02DF91822290024480AF028F928000135FFF713FF062D2C
:20E64000F9D154236A46204F9380204B39006846D5800093FFF78CFB00282CD101231C4DDE
:20E6600024782B70002C1BD11C27A1B202AA1648FFF7E2FB061E0CD13B00634315481C225B
:20E68000C01802A93300FFF779FC002804D02E7011E000232B700EE00134062CE5D10AE01B
:20E6A0006B466A469B88D1883800594389B2FFF7B1FC00E0084805B0F0BDC0462C270020C0
:20E6C0003A280020142700203C270020D5E40100BE280020502600200E800000F8B5174BE7
:20E6E00006001B780F00002B22D0002822D0002920D00B68002B1DD0114D2C68002C1BD18D
:20E700002800053108C005220AF09FF83B790220AB72012304212A7A9A4302438A432A72B0
:20E72000EA79134303438B43EB712000347004E0044802E0044800E00448F8BDBE280020A7
:20E740002C270020088000000E80000004800000154B1B78002B22D000281ED000291CD071
:20E760000378002B1BD1114B1B68002B17D04278002A16D10E4B9B7A012B12D02420184033
:20E7800003D0012310000B700CE05BB2002B02DA02230B7006E0087004E0064802E0064897
:20E7A00000E006487047C046BE2800202C2700203A2800200E8000000880000010800000CD
:20E7C000254BF0B51B78002B26D0002822D0002920D00B68002B1DD08B68002B1AD003782F
:20E7E000002B19D11D4A1268002A15D01C0018001B4A10321B4DEF7A9F420FD1AF7A022557
:20E800002F420BD001331C32062BF3D108710C7300201FE014481DE014481BE00F7BBC42E6
:20E820000CD20325977A2F40022F07D1133DAC46944466468D68A7007E5101340F79B84261
:20E84000E0D20225977A2F42DCD10D6887007A510130D7E7F0BDC046BE2800202C270020CE
:20E86000502600203A2800200E80000008800000104B70B51B78002B1AD0002816D00478B8
:20E88000002C15D10C4B1B68002B11D020001C252B006343094AD3189B7EFF2B02D02000DB
:20E8A000FFF702FE0134062CF2D102E0044800E0044870BDBE2800202C27002050260020A2
:20E8C0000E800000088000000048704791800000194A0300127810B50800002A28D0002B08
:20E8E00024D0002922D01C78002C21D1134A1268002A1DD09978FF290AD15978FF2919D073
:20E900000C2359430E4B59188B7A9B0712D508E01C2359430B4B591802238C7E1C4009D1E5
