:020000040001F9
:10600000B8320020156101002F61010031610100EB
:106010000000000000000000000000000000000080
:1060200000000000000000000000000033610100DB
:106030000000000000000000356101003761010030
:106040003961010039610100B56301003961010066
:106050003961010000000000416201003961010066
:1060600039610100396101003961010039610100C4
:1060700039610100396101003961010039610100B4
:1060800039610100CD62010039610100396101000F
:10609000ED620100396101003D63010039610100D9
:1060A00039610100396101000000000000000000BA
:1060B00000000000000000000000000000000000E0
:1060C0000348854600F07EF80048004789BB010080
:1060D000B8320020401E00BF00BF00BF00BF00BF9D
:1060E00000BF00BF00BF00BF00BF00BF00BFF1D1B5
:1060F00070470000401E00BF00BF00BF00BF00BFD0
:1061000000BF00BF00BF00BF00BF00BF00BFF1D194
:10611000704700000321094802680A4302600848EA
:1061200002680A4302600748804707480047FEE7C5
:10613000FEE7FEE7FEE7FEE7FEE70000240500407D
:106140005405004061630100C160010003460B4338
:106150009B0703D009E008C9121F08C0042AFAD21D
:1061600003E00B780370401C491C521EF9D27047A3
:10617000D2B201E00270401C491EFBD270470022DF
:10618000F6E710B513460A4604461946FFF7F0FF36
:10619000204610BD30B504460020034600E05B1CDD
:1061A000934203D2E05CCD5C401BF8D030BD0321AC
:1061B000001D401E037812021A43491EF9D51046ED
:1061C00070470000064C0125064E05E0E36807CC49
:1061D0002B430C3C98471034B442F7D3FFF774FFBD
:1061E00024D2010044D2010070B58C180578401CFF
:1061F0006B075B0F01D10378401C2A1106D102788E
:10620000401C03E006780E70401C491C5B1EF9D14F
:106210002B0705D40023521E0DD40B70491CFAE73E
:106220000378401CCB1A921C03E01D780D70491CAA
:106230005B1C521EF9D5A142D8D3002070BD0000CE
:10624000F8B51F4805691F490020C863074632E0BA
:1062500014213A464A434168806854180121B940E4
:10626000014226D0E068C64320686E4006403146B1
:10627000204605F0B7FE1248006968400CD005437F
:10628000E0682168C043684008400146009020460D
:1062900005F0A8FE009806433046A168A8430140D7
:1062A0002A4660683240104002460A4301D0226903
:1062B00090477F1CFFB2044841788F42C8D3F8BD95
:1062C00000050050406100404420002010B5064900
:1062D0000020086048608860C86003494039086051
:1062E000486006F007FB10BD40110140F0B50020EA
:1062F00087B0C0430290104846690569684605F0BA
:106300004DFA074605F086FB0446002F08D002AA86
:106310003146009805F062FA029805F0C5FB06E0E8
:10632000029805F0C1FB002801D1002C02D02846BC
:1063300003F0F6FF07B0F0BD6420002010B5074859
:106340004068002807D08047002803D0002211466B
:1063500000F088F810BD05F0B1FA10BD242100202E
:1063600010B505F0EBFA002805D00E490C4848603E
:10637000C8130D4988610D48018CC9B201290ED19D
:10638000818C09070BD1018D0906090F042906D15B
:10639000808D0006000F02D105490120886010BDE4
:1063A000DFFF07C000050040006C0040C00F00F098
:1063B000000600403EB5184CA068184D002804D0D7
:1063C0006868400701D506F095FBE069002804D015
:1063D0006868000601D506F023FD606A002819D020
:1063E0006868800516D5002060620D48016801606C
:1063F0000C4806220270416000786946087009491D
:1064000014398869CA69084B0292019001461B6AD7
:10641000009898473EBD0000002100400023004046
:10642000802400409C2A00209020002030B4744634
:10643000641E2578641CAB4200D21D46635D5B0080
:10644000E31830BC184702E008C8121F08C1002A30
:10645000FAD170477047002001E001C1121F002AE5
:10646000FBD1704738B504460020694608701749CB
:106470004868C005C00D17D0103840B2002807DAB0
:106480000207120F083A920892005118C96904E0F5
:1064900081080F4A8900891809688007C00EC14029
:1064A0000806800F012809D068462EDF022809D08F
:1064B000002803D000221146FFF7D4FF054884428C
:1064C00002D0FEE772B6F9E738BD000000ED00E04B
:1064D00000E400E0FECADDBA10B5002903D08A0747
:1064E0000024002A01D0072010BD0F4A0B4651603E
:1064F000107014215470414318469460FFF73FFE1A
:1065000000200A49C0438860094840210160094AC7
:106510001068FF231B0498430B04184310600648BF
:106520000160002010BD00004420002000630040F6
:1065300080E200E004E400E000E100E00A4B5A6879
:10654000002A04D05B78984203D3072070470820C4
:106550007047142358438018044A126900680240A7
:1065600000200A6070470000442000200005005011
:1065700070B50D4C05466068002804D060788542EF
:1065800003D3072070BD082070BD284605F02EFCFF
:106590000121A068A9408843A06003D101200349DC
:1065A000C0078860002070BD4420002000630040C8
:1065B000F0B51F4A5168002904D05378984203D39C
:1065C0000720F0BD0820F0BD1A4B0025DD631A4BF3
:1065D0001C699768002F02D1184EDB0573600126F5
:1065E00086403E439660142250434218D5600022F4
:1065F00001230D5893401D4215D01C4202D00325A3
:106600002D0405E001256D044618F7681F43F76067
:106610000B4B9600F3181E6803273F04BE431E6011
:106620001E682E431E60521C202AE1D30020F0BDBC
:1066300044200020406100400005005000630040FD
:1066400000070050F8B5114F84467D68002D07D033
:10665000002B07D078783C78A04205D30420F8BD01
:106660000820F8BD0720F8BD0E4614241643444305
:106670002E5164192361A260616061460870411C5B
:10668000797005F0B3FB0020F8BD00004420002025
:1066900070B50F4B05245D781E78B54215D01D7876
:1066A0001C789E88B44201DA641C00E000241C704F
:1066B0005C881E696C43A4190460DB68E800C41898
:1066C000A4880C80185800241060204670BD00007B
:1066D00050200020F7B52E4C82B060880E468142D3
:1066E00054D8002069462B4D087004F071FE07460F
:1066F000012809D068462EDF02280BD0002803D0DD
:1067000000221146FFF7AEFE6078A188884203D2CE
:10671000401C02E072B6F7E700202278C0B2904237
:1067200007D065786078884201DA401C00E00020DC
:106730006070012F0BD062B6684600782FDF022808
:1067400005D0002803D000221146FFF78BFE114828
:10675000854219D0E068EF000499C15102990029DF
:106760000CD0002E0AD06088324645432069281894
:10677000FFF7ECFCE0683818868002E0002138184A
:106780008180002005B0F0BD0420FBE70920F9E777
:1067900050200020FFFF00003EB5094C04E0684691
:1067A0008188029A00989047A068002806D102AA22
:1067B00001A96846FFF76CFF0028F0D03EBD00003D
:1067C0005020002030B5CB0008339DB29307002441
:1067D000002B01D0072030BD044BDA6052191A613A
:1067E0005C701C7058809980002030BD50200020C3
:1067F00038B500206946087004F0EAFD0446012817
:1068000009D068462EDF02281AD0002803D00022C3
:106810001146FFF727FE0B4881684A1C01D0491C2E
:106820008160012C0BD062B6684600782FDF022809
:1068300005D0002803D000221146FFF713FE38BD13
:1068400072B6E8E75020002038B50020694608708D
:1068500004F0BEFD0446012809D068462EDF022858
:106860001AD0002803D000221146FFF7FBFD0B4889
:106870008168002901D0491E8160012C0BD062B6CD
:10688000684600782FDF022805D0002803D00022B8
:106890001146FFF7E7FD38BD72B6E8E7502000204B
:1068A0000A4610B501460248FFF7DCFD10BD0000A6
:1068B000EFBEADDEF8B5144606000D461FD0002C25
:1068C0001DD000200090631C6A46304606F0A4FBF1
:1068D000002813D123466A462946304606F09CFB21
:1068E00000280BD1631D6A462946304606F094FB0A
:1068F000002803D10099A94200D00920F8BD0E203C
:10690000F8BD17B581B0144600290ED0002C0CD06C
:10691000002000906B4601A8226806F059FB002871
:1069200001D10099216004B010BD0E20FBE710B525
:1069300014688C4201D1092010BD611C1160005DFA
:106940001870002010BD00001CB50C4601210191FB
:10695000002812D0002A10D0116800290DD0084953
:106960001346009101AA214603F02CFD002803D113
:106970000199A14200D009201CBD0E201CBD0000C1
:106980002F6901001CB50023019301AB009313464E
:106990000A460146602005F055F91CBD70B51C463D
:1069A000002A14D0002C12D0002810D00588322DD7
:1069B00067D024DC162D52D012DC122D40D008DC1A
:1069C000012D3AD0102D59D0112D32D153E00E2087
:1069D00070BD132D37D0142D38D0152D29D13BE0A3
:1069E0001A2D42D006DC172D33D0182D3AD0192D90
:1069F0001FD13DE0302D4FD0312D1AD15FE0502D09
:106A00006DD008DC333D2B00FFF710FD073E424DF3
:106A10005C5549511300542D5ED006DC512D61D0D8
:106A2000522D62D0532D04D150E0552D51D0702DF0
:106A30005ED006200021216070BD00F05CF870BDC2
:106A400000F0F4FD70BD00F05CFF70BD00F008FFC9
:106A500070BD00F063FD70BD00F0C5FE70BD00F0BC
:106A600031FD70BD00F014FE70BD00F0DDFE70BDA4
:106A700000F077FF70BD00F086FE70BD00F038FEBC
:106A800070BD01F0CCFB70BD234601F015FD70BD5B
:106A9000234601F045FC70BD01F0A2FD70BD234608
:106AA00001F05CFD70BD234601F0F1FD70BD234691
:106AB00001F08CFE70BD234601F0A4FE70BD01F014
:106AC0002AFE70BD234601F09CFC70BD02F0C3FAA3
:106AD00070BD02F081FB70BD02F049FB70BD02F099
:106AE00097FB70BD02F0F5FA70BD02F059FB70BD66
:106AF00002F0C4FF70BD10B5002808D0002A06D0EF
:106B0000002B04D01968052903D2092010BD0E20DE
:106B100010BD012111700021517084889470240AE5
:106B2000D470007A107105201860084610BD10B5A9
:106B30001446024618462368C91A072901D20920BB
:106B400010BD99180722FFF701FB2068C01D2060C7
:106B5000002010BD10B51C460B4601462068121AD5
:106B6000072A01D2092010BD0A781A54206806228B
:106B7000401C2060C018491CFFF7E8FA2068801DFF
:106B80002060002010BD002808D0002A06D002296D
:106B90000CD30378712B03D0072070470E20704769
:106BA0004078002800D11060022901D009207047E8
:106BB00000207047FFB581B01E4615460F0018D063
:106BC000002D16D013460A462C687120019905F055
:106BD0002BFA002804D101992868002902D000204E
:106BE00005B0F0BD002E04D0C11DA14203D909207B
:106BF000F6E70E20F4E731783954441C38190622A0
:106C0000711CFFF7A3FAA41D2C60E8E77CB50646CB
:106C100001201C460D460190002E1AD0002A18D0E3
:106C2000002C16D02068002813D0134601AA304645
:106C300006F0E7F908480090234601AA29463046A5
:106C400003F0C0FB002803D10199A94200D009201C
:106C50007CBD0E207CBD00002F6B01001CB5002305
:106C6000019301AB009313460A460146702004F0DD
:106C7000E9FF1CBDFEB5089F099C0D4606001BD010
:106C8000002B19D0002C17D001200093019013463F
:106C900001AA304604F0A6FE00280CD13B4601AA0A
:106CA00029463046009404F09DFE002803D1019847
:106CB000A84203D00920FEBD0E20FEBD0020FEBD6F
:106CC00013460A4610B50146722005F0ADF910BD15
:106CD000F8B5054600200E46144601460090002DEA
:106CE00026D0002C24D02268002A21D05368002B03
:106CF0001ED0D268002A1BD01368002B18D09268CF
:106D0000002A15D08F00DF59002F11D0491C082907
:106D1000F8D300218B00D358002B09D0491C082937
:106D2000F8D3022E11D3295C732903D00720F8BDB4
:106D30000E20F8BD401C295C401C0090012906D0A3
:106D4000002020600098B0427BD00920F8BD811C53
:106D5000B142FAD82168285C08700098401C295C70
:106D6000401C0090012925D021680020486000982F
:106D7000811CB142E9D8295C2268401C1172295C4F
:106D8000401C009001292AD021680020C86000988A
:106D9000001DB042D9D123686A46314628461033D7
:106DA00006F094F823686A4631462846123306F006
:106DB0008DF8C7E7C11DB142C7D82168285C496872
:106DC000062208700098401C29180090206840682E
:106DD000401CFFF7BBF90098801D0090C8E7411CDC
:106DE000B142B2D82268285CD26810710091206844
:106DF000C26810790828A8D8002823D0C200101A29
:106E00004018B042A1D8002715E002680099B800E8
:106E10001258695C11700099491C00912268691828
:106E2000D268126810580622401CFFF78FF90098AC
:106E3000801D7F1C00902068C0680179B942E4D8A9
:106E400002E02DE00020106000980146401CB04296
:106E500090D82268695CD268117300902168CA6872
:106E6000117B082986D8002917D009010818B042DB
:106E7000A2D800270BE08068B90040580099102282
:106E80006918FFF763F9009810307F1C00902068A4
:106E9000C068017BB942EED879E70020906076E7C0
:106EA0000020F8BD13460A4610B50146732005F0D0
:106EB000BBF810BD13460A4610B50146742005F014
:106EC000B3F810BD002808D0002A06D01368002BA4
:106ED00003D0022903D0092070470E2070470178A3
:106EE000792901D0072070474078002800D1106030
:106EF00000207047FFB581B01E4614460D0018D023
:106F0000002C16D013460A4627687920019905F00F
:106F10008BF8002803D10198002802D0002005B08A
:106F2000F0BD002E05D02068811CB94203D909208C
:106F3000F5E70E20F3E731882A181170090A51701D
:106F4000801C2060EAE738B500230093002A05D0B2
:106F5000002803D0032903D0092038BD0E2038BDF6
:106F6000037801240094782B01D0072038BD134604
:106F70006A4605F0DDFF38BD13460A4610B50146E6
:106F8000782005F051F810BDFEB5089E1F460C464E
:106F900005001FD0002A1DD0002F1BD00120029019
:106FA000601E02282AD3134602AA284605F08EFF47
:106FB0000298844222D03B4602AA2146284606F087
:106FC00020F83878002807D0012807D0022807D0F9
:106FD0000720FEBD0E20FEBD002102E0062100E0DC
:106FE000102100910191334602AA2146284603F060
:106FF0000FF90028EFD10299A142ECD00920FEBD83
:1070000013460A4610B50146802005F00DF810BD64
:107010007CB5064601201C460D460190002E1CD072
:10702000002A1AD0002C18D02068002815D013464A
:1070300001AA304605F07CFF00280DD108480090D9
:10704000234601AA2946304603F0BCF9002803D1A3
:107050000199A94200D009207CBD0E207CBD000012
:10706000BB7E010013460A4610B501467E2004F09F
:10707000DBFF10BDF8B500271C460D4606460097FD
:1070800000280DD0002A0BD0002C09D02068002841
:1070900006D0042D3CD33078752803D00720F8BDE6
:1070A0000E20F8BD0120134600906A46304605F0D8
:1070B0000DFF0098315C012903D0002922D00B205C
:1070C000F8BD401C00900830A84221D86A462946E5
:1070D0003046236805F0FAFE23686A4629463046A2
:1070E0009B1C05F0F3FE23686A46294630461B1DAB
:1070F00005F0ECFE23686A46294630469B1D05F0E4
:10710000E5FE02E0401C009027600098A84201D0F4
:107110000920F8BD0020F8BD13460A4610B5014607
:10712000752004F081FF10BDF8B51D4616460F46C8
:10713000044605F00FFF002815D12B46324639468C
:10714000A01C05F007FF00280DD12B46324639461A
:10715000201D05F0FFFE002805D12B46324639469A
:10716000A01D05F0F7FEF8BDFFB583B016460C462E
:10717000070010D0002E0ED000250195002C22D043
:1071800002AB01AA05F03DFF6846007A822804D0D0
:10719000072007B0F0BD0E20FBE70198201A022857
:1071A00011D3334601AA2146384605F08FFE0095DB
:1071B00001AA21463846069B03F004F90028E8D1CD
:1071C0000199A142E5D00920E3E70000FFB583B0B3
:1071D0001C46150006460FD0002C0DD0014682201B
:1071E000276804F021FF002804D120680190002EB8
:1071F00004D0002007B0F0BD0E20FBE70648009049
:1072000001AB3A462946049803F00BF90028F1D166
:1072100001992160EEE700006972010038B51C4653
:10722000136800258B4201D1092038BD6B4605F05B
:10723000E8FE694620780978000909070001090F6E
:1072400008432070694609780007000F0909090101
:1072500008432070284638BD38B500786C46207049
:10726000684605F0E6FE38BDF8B51D4616460F46E1
:107270000446FFF7F1FF002805D12B463246394678
:10728000601C05F0D6FEF8BDF8B5002417460D4683
:1072900006460094002B0CD01968002909D0012063
:1072A000012D11D300907078012804D000281BD143
:1072B00001E00E20F8BD02220092012806D01C60D9
:1072C0000098411CA9420AD90920F8BD0B466A461C
:1072D0002946304605F02CFE0028F6D1F0E7305C58
:1072E000012804D0002801D00720F8BD3C60002010
:1072F000F8BDFFB583B00C9C1D00064610D0002CD5
:107300000ED0014623462A467D20276804F08CFED5
:1073100021680191002801D1002E03D007B0F0BDF3
:107320000E20FBE701A800903B462A4605990498E9
:1073300004F040FB01992160F0E70000FEB5089DD4
:107340001E460C46070021D0002A1FD0002E1DD05B
:10735000002D1BD001200190601E042814D30C487E
:107360001346009001AA384603F02CF800280CD1EF
:10737000334601AA21463846009504F003FB002855
:1073800003D10199A14200D00920FEBD0E20FEBD0F
:107390001D72010013460A4610B501467C2004F018
:1073A00043FE10BDFEB51D46144607000E4612D022
:1073B000002C10D0002D0ED00020009001AB6A46AA
:1073C000384605F029FE002804D168460079762861
:1073D00003D00720FEBD0E20FEBD23466A4631467F
:1073E000384605F0A5FD0028F6D12B466A46314601
:1073F000384605F011FE0028EED10099B142EBD0DD
:107400000920FEBD13460A4610B50146762004F059
:107410000BFE10BDF8B5074610681446081A0E4654
:107420001D46022810D3384605F050FD2068311A59
:10743000102909D3C1191022A81CFEF787FE206865
:1074400010302060B04201D10920F8BDA97C385C21
:107450004908C0074900C00F0143A974C807216843
:10746000C00F795C490849000843A8742068401C93
:1074700020600020F8BDF8B5054618681C46101AB3
:107480000E46132801D20920F8BD284605F062FDFA
:107490000700F9D1206810228019A91CFEF756FEBA
:1074A000206810302060A97CC907C90F3154AA7C1C
:1074B000206852085200114331542068401C20605B
:1074C0003846F8BDFEB51C461646050024D0002EF1
:1074D00022D0002C20D0002000902768162069467A
:1074E00088806B463A46314601A805F033FD0028F6
:1074F00011D16B463A463146281D05F02BFD002878
:1075000009D16B463A463146A81D05F092FD002888
:1075100001D100992160FEBD0E20FEBDFEB50546DD
:1075200000200090172069461C4616468880002DD2
:107530001FD0002E1DD0002C1BD027680B463A46CA
:10754000314601A805F006FD002811D16B463A46E8
:107550003146281D05F0FEFC002809D16B463A464D
:107560003146A81D00F007F8002801D100992160DC
:10757000FEBD0E20FEBDF8B5044618681E46101A62
:1075800017460D46022801D20920F8BD204605F015
:1075900050FD0028F9D133463A462946601C05F0D3
:1075A00048FD0028F1D1306800906B463A462946E4
:1075B000A01C00F0EAFB0028E7D130683346285CC5
:1075C00000903A462946E01C00F0DFFB3168681E57
:1075D000009B0A5CDB001A430A5433463A462946AC
:1075E000201D00F0B3FB0028CFD133463A46294690
:1075F000601D00F0ABFB0028C7D133463A46294650
:10760000A01DFFF738FF0028BFD1204633463A4679
:1076100029461A3000F0D4F90028B6D12046334666
:107620003A4629462A30FFF795FAF8BDF8B51D46C7
:107630001646040008D0002E06D0002D04D0208865
:10764000122803D00720F8BD0E20F8BD00200090BE
:107650002F686B463A463146204605F07BFC0028F1
:10766000F3D16B463A463146201D05F073FC0028E5
:10767000EBD16B463A463146A01D00F005F80028D4
:10768000E3D100992960F8BD10B5FFF74DFD10BD9D
:10769000FEB51C461646050024D0002E22D0002C34
:1076A00020D00020009027681820694688806B460B
:1076B0003A46314601A805F04DFC002811D16B4631
:1076C0003A463146281D05F045FC002809D16B4695
:1076D0003A463146A81D00F007F8002801D100996C
:1076E0002160FEBD0E20FEBD10B5FFF7BDFD10BD33
:1076F000FEB51C461646050024D0002E22D0002CD4
:1077000020D00020009027681020694688806B46B2
:107710003A46314601A805F01DFC002811D16B4600
:107720003A463146281D05F015FC002809D16B4664
:107730003A463146A81D00F007F8002801D100990B
:107740002160FEBD0E20FEBDF8B51D4617460E4653
:107750000446FFF7FFF9002814D1E0792968C00733
:10776000C00F7054E27929685208520010437054D7
:1077700028682B46401C286020463A46314608308F
:10778000FFF7D2FCF8BDFEB51C461646050024D016
:10779000002E22D0002C20D000200090276811203D
:1077A000694688806B463A46314601A805F0D2FB0F
:1077B000002811D16B463A463146281D05F0CAFB18
:1077C000002809D16B463A463146A81D00F007F85B
:1077D000002801D100992160FEBD0E20FEBD10B52C
:1077E00005F027FC10BD10B51C46002808D0002A63
:1077F00006D0002C04D021680A2903D2092010BD2C
:107800000E2010BD152111700021517083889370D6
:107810001B0AD370131D811D06221846FEF796FC25
:107820000A202060002010BD10B5002808D0002AD2
:1078300006D0002B04D01968052903D2092010BDF9
:107840000E2010BD1A21117000215170848894708F
:10785000240AD4708079107105201860084610BD84
:10786000FEB51C461646050024D0002E22D0002C62
:1078700020D00020009027681420694688806B463D
:107880003A46314601A805F065FB002811D16B4648
:107890003A463146281D05F05DFB002809D16B46AC
:1078A0003A463146A81D00F007F8002801D100999A
:1078B0002160FEBD0E20FEBDF8B51D4616460F46E2
:1078C0000446FFF747F900281AD120462B463246D6
:1078D0003946083005F03EFB002811D1A07A2B462E
:1078E0008207C107D20FC90F520040071143C00FD2
:1078F00080000143684601703246394605F099FB25
:10790000F8BDFEB51C461646050024D0002E22D038
:10791000002C20D000200090276813206946888022
:107920006B463A46314601A805F014FB002811D1F8
:107930006B463A463146281D05F00CFB002809D15C
:107940006B463A463146A81D00F007F8002801D1E1
:1079500000992160FEBD0E20FEBD10B500F0F5FAC5
:1079600010BD10B5002808D0002A06D0002B04D086
:107970001968052903D2092010BD0E2010BD192158
:1079800011700021517084889470240AD470807919
:10799000107105201860084610BD10B51446024647
:1079A00018462368C91A102901D2092010BD991858
:1079B0001022FEF7CBFB206810302060002010BDA5
:1079C00010B51C460B4601462068121A102A01D237
:1079D000092010BDC0181022FEF7B8FB2068103037
:1079E0002060002010BD0000F8B515460F460600C7
:1079F00017D0002D15D01C4605F09AFA00280FD19B
:107A0000A31C2A463946304605F092FA002807D1D1
:107A100005480090231D2A463946304602F0D2FC24
:107A2000F8BD0E20F8BD000031CF0100F8B51D46AD
:107A300017460E0017D0002D15D0044605F08AFA1F
:107A400000280FD12B463A463146A01C05F082FA99
:107A5000002807D1054800902B463A463146606819
:107A600002F0DFFCF8BD0E20F8BD000055CF01008C
:107A70001CB5002807D0002A05D0062400940194E4
:107A800002F0C6FB1CBD0E201CBD38B500290AD073
:107A9000002B08D00093134606240A4600682146AE
:107AA00002F0EBFB38BD0E2038BD0000F8B51546DE
:107AB0000F46060010D0002D0ED0084800901C463E
:107AC000304602F07FFC002805D1231D2A463946A6
:107AD000304605F02DFAF8BD0E20F8BD9B79010067
:107AE000F8B51D4617460E0010D0002D0ED00446E6
:107AF00007480090206802F094FC002805D12B462E
:107B00003A463146201D05F025FAF8BD0E20F8BD95
:107B1000C179010000280BD0002A09D01368002B7E
:107B200006D002290CD303787B2B03D007207047A3
:107B30000E2070474078002800D11060022901D043
:107B40000920704700207047F8B51D4607461646C5
:107B50000C0019D0002E17D0306813460A4600904A
:107B600039467B2004F060FA002802D1002F01D0B2
:107B70000020F8BD002D07D037680099384608303E
:107B8000884203D90920F8BD0E20F8BDE1192888E4
:107B900005F0ABF9C719E119688805F0A6F9C7190E
:107BA000E119A88805F0A1F9C719E119E88805F0DD
:107BB0009CF9C0193060DBE7F8B505460020144693
:107BC0000E460090002D37D0002C35D0022E31D338
:107BD00029787A2901D00720F8BD6978022200921D
:107BE000002903D0012903D00B20F8BD20601EE03E
:107BF0000A2E1FD32368002B1ED06A463146284622
:107C000005F064F923686A46314628469B1C05F056
:107C10005DF923686A46314628461B1D05F056F972
:107C200023686A46314628469B1D05F04FF90098A7
:107C3000B04203D00920F8BD0E20F8BD0020F8BDE9
:107C400013460A4610B501467A2004F0EDF910BD3E
:107C500038B50C4600280FD0002A0DD0012113465C
:107C600000916A46214605F063F9002803D1009986
:107C7000A14200D0092038BD0E2038BD13460A4667
:107C800010B50146832004F0CFF910BD38B50C467D
:107C900000280FD0002A0DD00121134600916A461A
:107CA000214605F045F9002803D10098A04203D0F1
:107CB000092038BD0E2038BD002038BD13460A46C5
:107CC00010B50146842004F0AFF910BDFEB5089D43
:107CD0001C460E46070012D0002A10D0002C0ED0F1
:107CE000002D0CD02068002809D02868002806D074
:107CF00001200190701E022803D20920FEBD0E2033
:107D0000FEBD134601AA384605F0E0F80948009088
:107D1000234601AA3146384602F054FB0028EFD131
:107D2000054800902B4601AA3146384602F04AFB2E
:107D3000FEBD000015740100AB7F010013460A462A
:107D400010B50146812004F06FF910BD30B51C68F4
:107D5000944201D1092030BD00788507C207ED0F9C
:107D6000D20F6D002A434507ED0FAD002A430507EA
:107D7000ED0FC006ED00C00F2A43000102430A5573
:107D80001868401C1860002030BD30B51C68944253
:107D900001D1092030BD00788507C207ED0F4007EB
:107DA000D20F6D00C00F2A43800002430A551868A5
:107DB000401C1860002030BDF8B505460120069C27
:107DC0001F460E460090002D1DD0002A1BD0002F0C
:107DD00019D0002C17D02068002814D0052E60D3AD
:107DE00013466A46284605F071F83B466A46314616
:107DF000284605F006F90098295C012905D00029DC
:107E000048D00B20F8BD0E20F8BD401C0090401D4E
:107E1000B04246D86A4631462846236805F056F8EF
:107E2000206881784A0800995200695CC907C90F27
:107E30000A438270FD210A4000992068695C890725
:107E4000C90F49000A438270E3210A400099206863
:107E5000695CC906490F89000A438270DF210A4024
:107E600000992068695C8906C90F49010A4382703C
:107E700000986A46401C0090236831462846DB1C67
:107E800005F0BFF823686A46314628461B1D05F0F9
:107E9000B8F803E0401C0090002020600098B04239
:107EA00001D00920F8BD0020F8BD13460A4610B5E0
:107EB00001467F2004F0B8F810BDFFB51068002718
:107EC000081A81B015460E461C46022832D3019886
:107ED00004F0FCFF2868B0422CD06B462A4631469D
:107EE000019805F08EF86946A07809784008CA071D
:107EF0004000D20F1043FD2210408A07D20F5200DB
:107F00001043E3221040CA06520F92001043890624
:107F1000DF22C90F104049010843A0702868B04211
:107F200008D0E31C2A463146019805F06AF8286813
:107F3000B04202D1092005B0F0BD231D2A463146CA
:107F4000019805F05EF83846F5E7F8B51D46164687
:107F50000F46044604F0FEFF002825D1A0782B46EA
:107F60008207C107D20FC90F52001143C206520F38
:107F7000920080061143C00F400101436846017022
:107F80003246394605F055F800280DD12B463246C9
:107F90003946E01C05F04DF8002805D12B46324645
:107FA0003946201D05F045F8F8BD10B514460246C7
:107FB0002068091A102901D2092010BD8118102249
:107FC0001846FEF7C3F8206810302060002010BD6E
:107FD00038B50C4600280FD0002A0DD001211346D9
:107FE00000916A46214605F017F8002803D1009851
:107FF000A04203D0092038BD0E2038BD002038BD76
:1080000013460A4610B50146772004F00DF810BD5E
:10801000FEB5089D1C460E46070014D0002A12D05B
:10802000002C10D0206800280DD0002D0BD028681F
:10803000002808D000200190032E24D338789428FB
:1080400003D00B20FEBD0E20FEBD01201346019083
:1080500001AA384604F03AFF0C480090234601AAD2
:108060003146384602F0AEF90028EDD108480090BC
:108070002B4601AA3146384602F0A4F90028E3D184
:108080000199B142E0D00920FEBD000081A00100AD
:108090009388010013460A4610B50146942003F068
:1080A000C3FF10BDFEB5089E1D460C46070020D03C
:1080B000002A1ED0002D1CD02868002819D0002EC0
:1080C00017D001200190601E052810D3134601AA85
:1080D000384604F0FBFE2B4601AA2146384600969E
:1080E00003F030F9002803D10199A14200D0092002
:1080F000FEBD0E20FEBD1CB50023019301AB009315
:1081000013460A460146962003F09CFD1CBDF8B5B7
:10811000064601201C460D460090002E17D0002A6E
:1081200015D0002C13D02068002810D0042D26D3A1
:1081300013466A46304604F0C9FE009AB05C521CF1
:108140000092002805D0012806D00B20F8BD0E2093
:10815000F8BD002020600FE0121DAA420FD86A4629
:1081600029463046236804F0B1FE23686A46294652
:1081700030469B1C04F0AAFE0098A84201D00920BA
:10818000F8BD0020F8BD13460A4610B501469220FE
:1081900003F04AFF10BDF8B5064601201C460D4607
:1081A0000090002E17D0002A15D0002C13D0206884
:1081B000002810D0042D26D313466A46304604F01A
:1081C00085FE009AB05C521C0092002805D0012860
:1081D00006D00B20F8BD0E20F8BD002020600FE077
:1081E000121DAA420FD86A4629463046236804F079
:1081F0006DFE23686A46294630469B1C04F066FEE5
:108200000098A84201D00920F8BD0020F8BD13460F
:108210000A4610B50146932003F006FF10BDFFB5D6
:1082200087B0144605002ED0002C2CD00A980028C8
:1082300029D000680A2823D31146322004F05AFEC0
:108240000646A119A88804F055FE8619A119E888E8
:1082500004F050FE8619A119288904F04BFE8619F6
:10826000A119A88904F046FE80190090A8890290FF
:10827000C1004118009809180A980068814204D981
:1082800009200BB0F0BD0E20FBE7002640E02118CE
:108290000A2070434719F88904F02CFE0099401811
:1082A000397C2154B97C401C8B07CA07DB0FD20FE5
:1082B0005B001A434B07DB0F9B001A430B07DB0FD6
:1082C000DB001A43CB06DB0F1B011A438B06DB0FC7
:1082D00049065B01C90F1A4389010A432254F97CFC
:1082E000401CC907C90F2154401C21180090B88AAE
:1082F00004F000FE01460098081821180090F88A42
:1083000004F0F8FD014600980818761CB6B20090FB
:10831000029886420098BAD30A9908600020B0E714
:10832000F8B51D461646040033D0002E31D0002D7E
:108330002FD0002000902F686B463A4631462046E9
:1083400004F008FE002823D16B463A463146201D32
:1083500004F000FE00281BD16B463A463146A01DB2
:1083600004F0F8FD002813D120466B463A4631460A
:10837000083004F0EFFD00280AD120466B463A464B
:1083800031460C3000F007F8002801D1009929602F
:10839000F8BD0E20F8BDFFB581B002AD0ECD04468C
:1083A00004F0D8FD002818D102AD0ECDA01C04F0B9
:1083B000D1FD060011D1251D00271DE002AE0ECE15
:1083C000284604F0C7FD060007D104980399006809
:1083D0006288091A8A4202D9092005B0F0BD029BC1
:1083E0006968C018FDF7B2FE049861880068083516
:1083F000411804987F1C01602088B842DED83046BE
:10840000EBE7FEB51D461646040036D0002E34D0EC
:10841000002D32D0002000902F68362069468880D9
:108420006B463A46314601A804F094FD002823D15A
:108430006B463A463146201D04F08CFD00281BD1C6
:108440006B463A463146A01D04F084FD002813D146
:1084500020466B463A463146083004F07BFD002842
:108460000AD120466B463A4631460C3000F007F8F8
:10847000002801D100992960FEBD0E20FEBDFFB588
:1084800081B01D4617460446029904F063FD0600BC
:1084900005D128682288391A8A4202D9092005B0F4
:1084A000F0BD02994018A11CFDF750FE21882868F4
:1084B000401828603046F2E7FFB583B01446060046
:1084C0002CD0002C2AD00698002827D000680A2833
:1084D00021D31146332004F012FD05466119B088FE
:1084E00004F00DFD45196119F08804F008FD4519E7
:1084F0006119308904F003FD45196119B08904F050
:10850000FEFC4519B0890190810040184119069878
:108510000068814204D9092007B0F0BD0E20FBE7B6
:10852000002714E006207843801900906119C08963
:1085300004F0E5FC451900986119008A04F0DFFC9D
:10854000451900987F1C807C6055BFB26D1C019856
:108550008742E7D3069805600020DDE7F8B51F469F
:10856000144605002ED0002C2CD0002F2AD03868BD
:108570000D2825D31146382004F0C6FC0646A11963
:10858000A88804F0C1FC8619A119E88804F0BCFC95
:108590008619A119288904F0B7FC8619A119A889A0
:1085A00004F0B2FC8619A87BA055761CA119288A74
:1085B00004F0AAFC2A8A861939689019884203D9DE
:1085C0000920F8BD0E20F8BD002A06D02946A019C2
:1085D0001231FDF7BBFD288A861900203E60F8BDE8
:1085E000FFB583B0144605002CD0002C2AD0069885
:1085F000002827D000680A2821D31146302004F033
:1086000088FC0646A119A88804F083FC8619A119E4
:10861000E88804F07EFC8619A119288904F079FC09
:108620008619A119A88904F074FC8619A8890190FB
:10863000C100081A811906980068814204D90920EE
:1086400007B0F0BD0E20FBE7002719E0F800401945
:108650000090A119C08904F05CFC86190098007C88
:10866000A0550098761CA119408A04F052FC861986
:108670000098A119808A04F04CFC86197F1CBFB2B7
:1086800001988742E2D3069806600020D8E7F8B543
:108690001F461446050030D0002C2ED0002F2CD0C1
:1086A00038680E2827D31146352004F037FC0646DB
:1086B000A119A88804F032FC8619A119E88804F0F1
:1086C0002DFC8619A119288904F028FC8619A11906
:1086D000A88904F023FC8619A119E88904F01EFC7E
:1086E0008619A119288A04F019FC2A8A8619396882
:1086F0009019884203D90920F8BD0E20F8BD002A40
:1087000006D02946A0191231FDF720FD288A8619C6
:1087100000203E60F8BDFEB50446002000903120E8
:1087200069461D4616468880002C31D0002E2FD079
:10873000002D2DD02F680B463A46314601A804F093
:1087400009FC002823D16B463A463146201D04F02F
:1087500001FC00281BD16B463A463146A01D04F0AF
:10876000F9FB002813D120466B463A4631460830C3
:1087700004F0F0FB00280AD120466B463A46314609
:108780000C3000F007F8002801D100992960FEBDE7
:108790000E20FEBDFFB581B01F460446039A029924
:1087A00004F0D8FB00280FD1A51C002609E03B46A9
:1087B0002846039A029900F0BDF8002804D10A3532
:1087C000761C2188B142F2D805B0F0BD10B5002862
:1087D00008D0002A06D0002B04D01968052903D23E
:1087E000092010BD0E2010BD3921117000215170DB
:1087F00084889470240AD470007B1071052018605E
:10880000084610BDF8B51F461446050033D0002CAD
:1088100031D0002F2FD038680F282AD311463720A7
:1088200004F081FB0646A119A88804F07CFB861998
:10883000A119E88804F077FB8619A119288904F0AA
:1088400072FB8619A119A88904F06DFB8619A87B13
:10885000A055761CA119288A04F065FB8619A11978
:10886000688A04F060FB6A8A861939689019884220
:1088700003D90920F8BD0E20F8BD002A06D02946EC
:10888000A0191431FDF762FC688A861900203E6049
:10889000F8BDFFB510680027081A81B015460E46CE
:1088A0001C46042802D2092005B0F0BD019804F04E
:1088B0000DFBA31C2A463146019804F007FB3846FD
:1088C000F2E7F8B51D4616460F46044604F042FB93
:1088D000002805D12B4632463946A01C04F03AFB4D
:1088E000F8BDF8B51C460D46060019D0002A17D071
:1088F000002C15D00120134600906A46304604F043
:1089000017FB00280BD123466A462946304604F05F
:108910000FFB002803D10099A94200D00920F8BD1F
:108920000E20F8BD13460A4610B50146982003F004
:108930007BFB10BDF8B51D4616460F46044604F0F5
:1089400009FB002805D12B4632463946A01C00F011
:10895000C6F8F8BDF8B506460120069C1F460D4630
:108960000090002E1FD0002A1DD0002F1BD0002CFD
:1089700019D02068002816D0062D2CD313466A463D
:10898000304604F0A3FA3B466A462946304604F0D6
:108990009DFA009AB05C521C0092002805D0012874
:1089A00006D00B20F8BD0E20F8BD002020600FE09F
:1089B000D21CAA420FD86A4629463046236804F0E2
:1089C00085FA23686A46294630469B1C04F019FB49
:1089D0000098A84201D00920F8BD0020F8BD134638
:1089E0000A4610B50146902003F01EFB10BDF8B5F5
:1089F000069C1D460E46070023D0002A21D0002DDC
:108A00001FD0002C1DD00120134600906A46384626
:108A100004F08EFA002813D12B466A4631463846B8
:108A200004F086FA00280BD123466A4631463846C0
:108A300004F07EFA002803D10099B14200D0092049
:108A4000F8BD0E20F8BD13460A4610B50146952024
:108A500003F0EAFA10BDF8B5064601201C460D46A3
:108A60000090002E17D0002A15D0002C13D02068BB
:108A7000002810D0042D26D313466A46304604F051
:108A800025FA009AB05C521C0092002805D00128FB
:108A900006D00B20F8BD0E20F8BD002020600FE0AE
:108AA000121DAA420FD86A4629463046236804F0B0
:108AB0000DFA23686A46294630469B1C04F006FAE4
:108AC0000098A84201D00920F8BD0020F8BD134647
:108AD0000A4610B50146912003F0A6FA10BDF8B57C
:108AE0001D4616460F46044601F0E0FA002805D15F
:108AF0002B4632463946201DFFF7E3FEF8BDF8B598
:108B000015460F4606002AD0002D28D0002B26D06F
:108B10001C4604F081FA002820D123460C332A4653
:108B20003946304604F078FA002817D1A31C2A46AB
:108B30003946304604F0FCF900280FD1231D2A469F
:108B40003946304604F0F4F9002807D1A01D831CF3
:108B500000902A463946304602F014FFF8BD0E2038
:108B6000F8BD0000FEB51C46154607000E4615D0A0
:108B7000002D13D0002C11D0206800280ED000202A
:108B8000019002AB01AA384604F046FA002804D14D
:108B90006846007A972803D00720FEBD0E20FEBD50
:108BA0002B4601AA3146384604F0C2F90028F6D116
:108BB00007480090234601AA3146384601F002FCDE
:108BC0000028ECD10199B142E9D00920FEBD000096
:108BD000FF8A010013460A4610B50146972003F0AC
:108BE00023FA10BDF8B51D4616460F46044601F09F
:108BF0005DFA002829D12B4632463946201D01F066
:108C000055FA002821D120462B46324639460830F5
:108C100001F04CFA002818D120462B46324639463E
:108C20000C3004F097F900280FD120462B4632462D
:108C300039460E3004F08EF9002806D120462B4626
:108C400032463946103004F0F4F9F8BDF8B507465D
:108C50001948009015460E461C46384601F0B2FBF6
:108C600000280ED115480090231D2A46314638466B
:108C700001F0A8FB002804D12868301A042801D28A
:108C80000920F8BD23460A332A463146384604F007
:108C90001DF923460C332A463146384604F016F9AE
:108CA000204608302346009010332A463146384685
:108CB00002F068FEF8BD000081A00100C18C010037
:108CC000FFB581B016460F461C460198FEF7A6FA7E
:108CD00000280BD1631C324639460198FEF79EFAF4
:108CE000050003D13068B84202D1092005B0F0BDBB
:108CF0006B4632463946019804F083F9A078410862
:108D0000684600784900C207D20F1143F92211408A
:108D10004207920F52001143F72211400207D20F6F
:108D2000D2001143C006EF22C00F114000010143E1
:108D3000A1702846DAE7F8B51D4616460F460446E8
:108D400004F008F9002815D12B4632463946A01CFC
:108D500004F000F900280DD12B4632463946201D7B
:108D600004F0F8F8002805D12B4632463946A01DFC
:108D700004F0F0F8F8BD0000F8B5064610680F469C
:108D8000091A15461C46022940D3315C2078CA07CF
:108D900040084000D20F10438B07FD22DB0F10402C
:108DA0005B001843FB2318404B07DB0F9B00184365
:108DB000F72318400B07DB0FDB001843EF231840A5
:108DC000CB06DB0F1B011843DF2318408B06DB0F9C
:108DD0005B0118434906BF23C90F184089010843A6
:108DE00020702968701C095C6078CB07400840003F
:108DF000DB0F89071843C90F104049000843607012
:108E00002868801C2860381A022801D20920F8BD81
:108E1000234608332A463946304604F057F82046A0
:108E20000A300090231D2A463946304602F0AAFD3A
:108E30000028ECD11548234600900C332A463946C9
:108E4000304601F0BFFA0028E1D1114823460090D6
:108E500010332A463946304601F0B4FA0028D6D1FC
:108E60000B482346009014332A463946304601F019
:108E7000A9FA0028CBD106482346009018332A4689
:108E80003946304601F09EFAF8BD000057C0010097
:108E9000C18C0100FFB583B003980C9F0D9E1D4649
:108EA0000C4600283FD0002A3DD0002D3BD0002F9B
:108EB00039D0002E37D02868002834D038680028F0
:108EC00031D0306800282ED001200190002C27D00E
:108ED000601E022824D3134601AA039803F0F6FF6C
:108EE000124800902B4601AA2146039801F06AFA25
:108EF000002816D10E4800903B4601AA214603984F
:108F000001F060FA00280CD10090334601AA2146F6
:108F1000039801F057FA002803D10199A14200D02B
:108F2000092007B0F0BD0E20FBE70000798D01009D
:108F30004D8C0100FFB581B014460E00074607D0E6
:108F4000002C05D02568052D04D2092005B0F0BD00
:108F50000E20FBE713460A460146A22003F064F800
:108F60000028F3D1002FF1D10448009023462A466F
:108F70003146049801F055FAE8E70000378D01000A
:108F8000FEB5089D1C460E46070014D0002A12D0DC
:108F9000002C10D0206800280DD0002D0BD02868A0
:108FA000002808D000200190042E23D33878A3286D
:108FB00003D00720FEBD0E20FEBD01201346019008
:108FC00001AA384603F082FF0C480090234601AA0C
:108FD0003146384601F0F6F90028EDD100902B46D5
:108FE00001AA3146384601F0EDF90028E4D1019894
:108FF000B04201D00920FEBD0020FEBD4D8C010015
:10900000FFB581B014460E00074610D0002C0ED0DC
:109010002568052D12D313460A460146A32003F006
:1090200003F8002801D1002F03D005B0F0BD0E20B9
:10903000FBE720680090801CA84201D90920F4E7D2
:109040006B462A46314604A803F084FF0028ECD181
:1090500000992160E9E710B5002808D0002A06D061
:10906000002B04D01968062903D2092010BD0E2058
:1090700010BD532111700021517084889470240A0E
:10908000D470C0881071000A50710620186008461C
:1090900010BDF8B51D4617460E0018D0002D16D08D
:1090A000002814D0044603F055FF00280ED12B46AB
:1090B0003A463146A01CFFF795FD002806D1204610
:1090C0002B463A463146143003F044FFF8BD0E20DB
:1090D000F8BDF8B51C461600054621D0002C1FD05F
:1090E000002D1DD00020009027686B463A4631467F
:1090F000284603F02FFF002811D16B463A4631462F
:10910000281D03F027FF002809D16B463A46314657
:10911000A81D00F007F8002801D100992160F8BDD2
:109120000E20F8BDF8B51D4617460E000FD0002DD5
:109130000DD000280BD0044603F07BFF002805D19A
:109140002078012805D002280AD00720F8BD0E207B
:10915000F8BD2B463A463146A01CFFF79AFFF8BDF2
:109160002B463A463146A01C00F07EF8F8BD002898
:1091700008D0002A06D0002B04D01968042903D295
:10918000092070470E207047542111700021517042
:1091900080889070000AD0700420186008467047DC
:1091A00010B5002808D0002A06D0002B04D019687A
:1091B000052903D2092010BD0E2010BD52211170C7
:1091C0000021517084889470240AD47080791071C1
:1091D00005201860084610BD10B5002808D0002AE8
:1091E00006D0002B04D01968052903D2092010BD30
:1091F0000E2010BD5521117000215170848894708B
:10920000240AD4708079107105201860084610BDBA
:10921000FEB51C461646050024D0002E22D0002C98
:1092200020D00020009027685020694688806B4637
:109230003A46314601A803F08DFE002811D16B4655
:109240003A463146281D03F085FE002809D16B46B9
:109250003A463146A81D00F007F8002801D10099D0
:109260002160FEBD0E20FEBDFFB581B01D46174634
:109270000446029903F06EFE00282AD12B463A4696
:10928000A01C029903F0D5FE002822D12B463A46B5
:10929000201D0299FFF7A6FC00281AD120462B4674
:1092A0003A461630029903F055FE002811D1208B62
:1092B000694608802B463A466846029903F04AFE02
:1092C000060006D128686A461288391A914202D2ED
:1092D000092005B0F0BD0299401821461A31FCF76B
:1092E00035FF694609882868401828603046F0E74D
:1092F000F8B5074610681546081A0E461C4605289C
:1093000001D20920F8BD384603F0E0FDA31C2A462F
:109310003146384603F075FE231D2A46314638464D
:1093200003F0D4FD2046083007D0031D00902A46E4
:109330003146384601F08EF8F8BD0E20F8BD000029
:109340007CB5054600201C460E460190002D0DD030
:10935000002A0BD0002C09D02068002806D0042E4B
:109360001AD32878A62803D007207CBD0E207CBD08
:1093700001201346019001AA284603F0A7FD0848E2
:109380000090234601AA3146284601F01BF8002828
:10939000EDD10198B04201D009207CBD00207CBDF8
:1093A000F1920100FFB583B014460D0006460ED0C1
:1093B000002C0CD013460A460146A620276802F06E
:1093C00033FE002801D1002E03D007B0F0BD0E20DF
:1093D000FBE7206801900648009001AB3A46294619
:1093E000069801F01EF80028EFD101992160ECE702
:1093F00055CF0100F8B504460020069D1E460F46D5
:109400000090002C08D0002A06D0002E04D0002D99
:1094100002D0062F1DD101E00E20F8BD2078A12832
:1094200001D00720F8BD0120134600906A4620466F
:1094300003F04CFD33466A463946204603F046FDAC
:109440000099605C491C0091002800D12860062921
:1094500001D00920F8BD0020F8BDFEB51D46074625
:1094600014460E001FD0002C1DD020680290002052
:10947000019001A813460A4600903946A12002F047
:10948000E1FB002801D1002F00D0FEBD002D0AD045
:1094900001AB31462846029A03F05CFD0028F4D166
:1094A00001992160FEBD0E20FEBDFEB50746106885
:1094B0001546081A0E461C46022812D3384603F0F9
:1094C00005FD2868B0420CD001AB2A46314638462B
:1094D00003F097FD68460079A0702868301A0228CA
:1094E00001D20920FEBD231D2A463146384603F02D
:1094F000EDFCA01D831C00902A463146384602F040
:1095000041FAFEBDF8B5074610680E4615461C46E2
:10951000B04201D10920F8BD384603F072FD207831
:10952000012803D0022808D00720F8BD231D2A46B1
:1095300031463846FFF7B9FFF8BD231D2A463146AC
:10954000384600F043FAF8BD7CB51E460C460500CF
:109550001AD0002A18D001200190601E022811D3D1
:10956000134601AA284603F0B1FC08480090334690
:1095700001AA2146284600F025FF002803D10199C1
:10958000A14200D009207CBD0E207CBD05950100C4
:1095900013460A4610B50146A82002F045FD10BD4D
:1095A000FEB5089D1E460C4607002FD0002A2DD080
:1095B000002E2BD03068002828D0002D26D0286817
:1095C000002823D001200190601E03281CD31346DD
:1095D00001AA384603F020FD002816D10C4800905F
:1095E000334601AA2146384600F0ECFE00280CD193
:1095F00000902B4601AA2146384600F0E3FE0028E1
:1096000003D10199A14200D00920FEBD0E20FEBD6C
:1096100081A00100FEB51D46074614460E001FD06E
:10962000002C1DD0206802900020019001A8134654
:109630000A4600903946A02002F004FB002801D120
:10964000002F00D0FEBD002D0AD001AB31462846C8
:10965000029A03F07FFC0028F4D101992160FEBD3D
:109660000E20FEBDF8B504460020069D1E460F469E
:109670000090002C08D0002A06D0002E04D0002D27
:1096800002D0072F1DD101E00E20F8BD2078A728B9
:1096900001D00720F8BD0120134600906A462046FD
:1096A00003F014FC33466A463946204603F00EFCAC
:1096B0002B466A463946204603F008FC00980728E6
:1096C00001D00920F8BD0020F8BD13460A4610B5A8
:1096D0000146A72002F0A8FC10BDF0B5059D0028AA
:1096E0002BD0002B29D0002D27D004292AD3047891
:1096F000AA2C01D00720F0BD002A1ED0867847781A
:1097000034023C431480C67804220024012E08D081
:109710002C60551C8D4215D8805C521C00280ED040
:109720000EE006290ED32D68002D06D04679077964
:1097300032023A432A800622EBE70E20F0BD1C607D
:109740008A4201D00920F0BD0020F0BDFFB581B0F4
:109750000A9F14460D002DD0002C2BD02668052E14
:1097600026D313460A46AA20019902F05DFC002880
:1097700003D10198002802D0002005B0F0BD049864
:10978000002817D0002F15D02068811CB1420FD8B7
:1097900039882A181170090A5170C11C3A88801C36
:1097A000B14205D801212954401C8718B74203D97A
:1097B0000920E2E70E20E0E728180499FCF7C6FC30
:1097C0002760D9E7FEB5074601200090089D01A853
:1097D0001C460E460290002F19D0002A17D0002CEC
:1097E00015D02068002812D0002D10D0042E26D3CA
:1097F00013466A46384603F069FB0098395C401C02
:109800000090002905D0012909D00B20FEBD0E20B3
:10981000FEBD00212160B04211D1298015E06A46C9
:1098200031463846029B03F051FB684682882888FF
:10983000824204D82A8000981118B14201D0092030
:10984000FEBD39182068FCF781FC0020FEBD1346E0
:109850000A4610B50146A92002F0E6FB10BDFFB58F
:1098600081B000250A9E0F4604460095002804D0CA
:10987000072F04D2092005B0F0BD0E20FBE72078A9
:10988000A52801D00720F6E70120134600906A467C
:10989000204603F01BFB6A4639462046049B03F032
:1098A00015FB0098215C401C0090012907D0356011
:1098B0000098215C401C0090002907D008E06A460F
:1098C00039462046336803F001FBF1E70B98056049
:1098D0000020D0E7FFB583B00C9E14460F0007D0E0
:1098E000002C05D02568052D04D2092007B0F0BD55
:1098F0000E20FBE713460A46A520039902F094FBCD
:109900000028F3D1206801900398002817D10E4851
:10991000009001AB2A463946304600F082FD00280F
:10992000E4D1002E01D0318800E0002101A8009090
:109930002B463A46069800F0A0FC0028D6D10198A4
:1099400020600020D2E7000055CF0100FFB583B0B2
:1099500003980C9E0D9D1F460C46002826D0002A19
:1099600024D0002F22D0002E20D0002D1ED0012088
:109970000190601E062816D3134601AA039803F02F
:10998000A5FA3B4601AA2146039803F09FFA2B460D
:1099900001AA21460096039800F05CFD002803D13F
:1099A0000199A14200D0092007B0F0BD0E20FBE7CD
:1099B0003EB51C460023029302AB01930B46009276
:1099C00001462246A42002F023F93EBD70B5156879
:1099D00000244D1B022D01D2092070BD03F076FA40
:1099E000204670BD08B500230093002A04D000284B
:1099F00002D0032912D101E00E2008BD0378B02B5C
:109A000001D0072008BD0123009313466A4603F0E6
:109A10008FFA0028F6D100990329F3D0092008BD58
:109A200013460A4610B50146B02002F0FDFA10BDFB
:109A300008B500230093002A04D0002802D003298F
:109A400012D101E00E2008BD0378B12B01D0072010
:109A500008BD0123009313466A4603F069FA002803
:109A6000F6D100990329F3D0092008BD13460A4610
:109A700010B50146B12002F0D7FA10BDFEB51C4664
:109A80001646050024D0002E22D0002C20D0002025
:109A9000009027687020694688806B463A463146B8
:109AA00001A803F057FA002811D16B463A46314617
:109AB000281D03F04FFA002809D16B463A4631467B
:109AC000A81D00F007F8002801D100992160FEBD13
:109AD0000E20FEBDFFB581B01D460E0012D0002D38
:109AE00010D000280ED00446039A00F02EF807008C
:109AF00006D1286803992288091A8A4204D90920C4
:109B000005B0F0BD0E20FBE78019211DFCF71EFB00
:109B100021882868401828603846F1E7F8B51546CE
:109B20000F4606000FD0002D0DD0002B0BD01C4689
:109B300003F0FEF9002805D1A31C2A463946304619
:109B400003F0F6F9F8BD0E20F8BDF8B51D4617462E
:109B50000E000FD0002D0DD000280BD0044603F0CE
:109B6000F9F9002805D12B463A463146A01C03F0EE
:109B7000F1F9F8BD0E20F8BDFEB5089D1C460F4654
:109B8000060027D0002A25D0002C23D020680028EA
:109B900020D0002D1ED001201346019001AA30468E
:109BA00003F0C6F9002816D110480090234601AAF8
:109BB0003946304600F006FC00280CD12168002907
:109BC0000AD001997218521C2A602268491C128816
:109BD000511805E00E20FEBD002129600199491CA5
:109BE0000191B942F7D00920FEBD00001D9B010084
:109BF00013460A4610B50146B22002F015FA10BD10
:109C0000F8B500261C46174605460096002809D0E0
:109C1000002F07D0002C05D02068002802D006298C
:109C200020D101E00E20F8BD287869280FD101204D
:109C3000134600906A46284603F0B0F90028F2D196
:109C40003868202805D0212803D0222801D00720F9
:109C5000F8BD0099685C491C0091002800D126607D
:109C6000062901D00920F8BD0020F8BDFFB581B05C
:109C700014460D0006461BD0002C19D013460A4688
:109C800001466920276802F0CFF9002802D1002E92
:109C900002D0002005B0F0BD0A98002808D0049832
:109CA000202807D0212805D0222803D00720F1E75B
:109CB0000E20EFE7206800906B463A46294604A83C
:109CC00003F086F90028E5D10498202804D0212843
:109CD00009D0222816D10DE06B463A4629460A984B
:109CE000FDF7A4FE0CE06B463A4629460A98FDF7BC
:109CF000CCFE05E06B463A4629460A98FDF7F0FE91
:109D00000028C7D100982060C3E708B5002300935E
:109D1000002805D0002A03D0052903D2092008BD58
:109D20000E2008BD0378682B01D0072008BD012351
:109D3000009313466A4603F031F908BDF8B50546AD
:109D400000201C4616460F460090002D0CD0002E19
:109D50000AD0002C08D02068002805D0062F3ED35A
:109D60002878682812D101E00E20F8BD01201346A2
:109D700000906A46284603F011F90028F5D13168B1
:109D8000202905D0212903D0222901D00720F8BDA0
:109D9000009AAB5C521C0092002B06D0202907D001
:109DA00021290CD0222917D110E00021216013E0D5
:109DB0006A46394628462368FDF716FE0CE06A46D7
:109DC000394628462368FDF753FE05E06A463946C2
:109DD00028462368FDF76AFE0099B942D7D00920CA
:109DE000F8BD10B50446002909D0002A07D0134653
:109DF0000A460146692002F017F9002810BD0E201E
:109E000010BDFEB517460D4606000DD0002402AB6E
:109E100001AA019403F000F9002804D16846007AF1
:109E2000622803D00720FEBD0E20FEBD3B4601AADE
:109E300029463046009400F0C5FA0028F5D1019972
:109E4000A942F2D00920FEBDFFB581B014460D0035
:109E500006460ED0002C0CD013460A46014662205E
:109E6000276802F0E1F8002801D1002E03D005B0E8
:109E7000F0BD0E20FBE70448009023463A462946F1
:109E8000049800F0CEFAF2E733D0010070B5144622
:109E90000246184623680025C91A102901D2092054
:109EA00070BD99181022FCF751F92068103020601D
:109EB000284670BDFFB583B014460D46070015D087
:109EC000002C13D000266420694601960872002DEC
:109ED00023D002AB01AA2946384603F092F868461F
:109EE000007A642804D00B2007B0F0BD0E20FBE7F9
:109EF000009401AA29463846069B01F073FD00280C
:109F0000F2D1009601AA294638460C9B00F05AFA75
:109F10000028E9D10199A942E6D00920E4E7000030
:109F2000FFB583B014460D00064611D0002C0FD0AB
:109F300013460A4601466420276802F075F8002897
:109F400004D120680190002E04D0002007B0F0BD9D
:109F50000E20FBE70648009001AB3A4629460698DA
:109F600000F05FFA0028F1D101982060EDE70000D1
:109F7000ADA00100F8B5044601201E4617460D4667
:109F80000090002C19D0002F17D0002E15D0069865
:109F9000002812D03B68002B0FD0306800280CD06E
:109FA00006980068002808D0042D33D36178022079
:109FB000002904D0012906D024E00E20F8BD00902D
:109FC000002010600EE0072D24D300906A46294639
:109FD000204602F07BFF00983968205C887000986A
:109FE000401C0090009AA05C002802D0012809D1F2
:109FF00001E000203060521C0092A05C002803D0D9
:10A00000012804D00B20F8BD069900200860521CDE
:10A01000AA4201D00920F8BD0020F8BDFFB581B0EB
:10A0200015460E0004460ED0002D0CD013460A46ED
:10A03000014665202F6801F0F7FF0100286804D071
:10A04000084605B0F0BD0E20FBE7002C01D0002033
:10A05000F7E7411CB94209D8049931540A99401CC8
:10A0600000290BD004994418BC4201D90920E8E723
:10A070000A4630180A99FCF769F820462860E6E796
:10A08000F8B5074610681546081A0E461C46032800
:10A0900001D20920F8BD384602F018FFA31C2A4659
:10A0A0003146384602F0ADFF0020F8BDF8B51D4638
:10A0B00016460F46044602F04DFF002805D12B46F8
:10A0C00032463946A01C02F0B4FFF8BD7CB5064606
:10A0D00001201C460D460190002E20D0002A1ED0E3
:10A0E000002C1CD01068002819D02068002816D039
:10A0F0000C481346009001AA304600F063F900288E
:10A100000CD10090234601AA2946304600F05AF9A6
:10A11000002803D10199A94200D009207CBD0E205E
:10A120007CBD00008D9E0100FFB583B014460D007C
:10A13000064611D0002C0FD013460A460146632074
:10A14000276801F071FF002804D120680190002EDB
:10A1500004D0002007B0F0BD0E20FBE706480090B9
:10A1600001AB3A462946069800F05BF90028F1D188
:10A1700001992160EEE7000033D00100002808D0EB
:10A18000002A06D01368002B03D0022903D009202F
:10A1900070470E2070470178662901D0072070476C
:10A1A0004078002800D1106000207047FFB581B0D2
:10A1B0001E4614460D0018D0002C16D013460A4631
:10A1C00027686620019901F02FFF002803D101982C
:10A1D000002802D0002005B0F0BD002E05D0206878
:10A1E000411DB94203D90920F5E70E20F3E7317884
:10A1F0002954401C2A1871881170090A5170801C5A
:10A20000B1882A181170090A5170801C2060E1E79A
:10A21000FFB581B00F46002069460B9E087010689C
:10A220001C461546B8421BD00B463946019802F031
:10A23000E8FE68460078012806D0002C01D00020F6
:10A240002060002005B0F0BD002C0BD02068002855
:10A2500008D00A998E4203D829687A1AB24203D2EA
:10A260000920EFE70E20EDE7019A89183246FBF747
:10A270006DFF286880192860E3E7FFB581B00A9C6C
:10A280000D46060001D0012000E00020694608705C
:10A2900023466846049A039902F0CBFE070007D1D3
:10A2A000002E10D020680499091AA94202D2092070
:10A2B00005B0F0BD03992A4640183146FBF746FF2A
:10A2C0002068401920603846F2E7000010B51248B7
:10A2D000017842780907090F022910D8252A0ED8DB
:10A2E000002904D001290CD05523002111E00B498D
:10A2F000801CFBF74FFF002801D1012010BD00207A
:10A3000010BD0F23F1E74418A4789C42F7D1491CF3
:10A31000C9B29142F7D3F0E7602700204CD001008A
:10A32000F8B5224801694A1C3DD024225143826875
:10A3300089184E681E494C6847690079E11B0D0277
:10A340002D0AED1C002814D101201A4A0004506087
:10A35000184A403A506018494000086017490860A0
:10A360001749012008602F20FBF7B4FE0F49012098
:10A370000871B54200D23546E81900020C49000ABE
:10A38000403108600A494968001B091B0902090A93
:10A390000002000AC91C814204D901200649400478
:10A3A00080390860F8BD01F0FBFDF8BD6420002095
:10A3B000001501404013014080E200E000E100E0B0
:10A3C00000100140FFB581B01168029800250A9E77
:10A3D0001C461746814202D1092005B0F0BD014656
:10A3E0006B46019802F00DFE68460078012804D003
:10A3F000002811D00B252846EFE7002C0AD023684F
:10A40000002B07D0002EF6D03A4602990198B047AB
:10A410000546F0E70E20E0E7002CECD0002020609D
:10A42000E9E7F8B51E680025069C964201D109208F
:10A43000F8BD002801D0012700E000278F551E68D5
:10A44000761C1E60002803D0002C01D0A0470546D2
:10A450002846F8BDFFB583B00C9C1D461646002C5F
:10A460000FD0206800280CD0002D0AD028680028C2
:10A4700007D031680498401A022804D2092007B096
:10A48000F0BD0E20FBE700276846077101AB049979
:10A49000039802F0B6FD68460079002808D02068CD
:10A4A00000902B4632460499039801F06BFAE6E7D8
:10A4B00027603068401C306000202F60DFE77CB5EB
:10A4C0001C461546002811D0002D0FD0002C0DD0B1
:10A4D00001AA00926A46FCF737FA002805D10098D5
:10A4E00060DF22462946FCF74DFA7CBD0E207CBD7C
:10A4F0003EB51C461546002813D0002D11D0002C67
:10A500000FD001AA009289B26A46FCF73CFB0028F2
:10A5100006D1009871DF22462946009BFCF74AFBD2
:10A520003EBD0E203EBD7FB51C461546002815D009
:10A53000002D13D0002C11D002AA00926B4601AA64
:10A54000FCF764FB002807D168460079009970DFAA
:10A5500022462946FCF782FB04B070BD0E20FBE7C3
:10A5600070B596B01C4615460E46002823D0002D27
:10A5700021D0002C1FD006A902911F216A46117319
:10A580000EAA04926A46117505AA04A901920091C7
:10A5900003AB02AA3146FCF76DFB002809D16846DF
:10A5A000037D017B049A029872DF22462946FCF75C
:10A5B00087FB16B070BD0E20FBE7FFB5CBB01D4684
:10A5C0008C4600282FD04D9900292CD0002D2AD060
:10A5D000002138AA2AABCC00641A8E00E418491C6A
:10A5E00094510829F7D3002440AB0AAE21018F19FA
:10A5F000A100641C5F50082CF8D348A9019105A95B
:10A600000391694605920991079309AA6146FCF7EF
:10A610005FFB002805D1099873DF2A464D99FCF7A6
:10A6200041FC4FB0F0BD0E20FBE770B51D4614464F
:10A63000002809D0002C07D0002D05D074DF2A4651
:10A640002146FCF737FC70BD0E2070BD7CB51C4662
:10A650001546002813D0002D11D0002C0FD001AAD0
:10A66000009289B26A46FCF72DFC002806D10098BA
:10A6700079DF22462946009BFCF73CFC7CBD0E207E
:10A680007CBD38B51C461546002810D0002D0ED0D4
:10A69000002C0CD06A46FCF756FC002806D1684610
:10A6A000008878DF22462946FCF766FC38BD0E207C
:10A6B00038BD30B589B01C461546002819D0002D8C
:10A6C00017D0002C15D004AA019201AA009289B2D9
:10A6D00003AB02AAFCF758FC002808D16846017BAE
:10A6E0000089019A80DF22462946FCF789FC09B0DF
:10A6F00030BD0E20FBE77FB51C461546002815D05F
:10A70000002D13D0002C11D002AA00926B4601AA92
:10A71000FCF77EFC002807D16846808800997EDF20
:10A7200022462946FCF79EFC04B070BD0E20FBE7D4
:10A730007FB51C461546002815D0002D13D0002CDF
:10A7400011D002AA00926B4601AAFCF793FC0028E4
:10A7500007D168468088009975DF22462946FCF7B4
:10A76000DBFC04B070BD0E20FBE73EB51C46154671
:10A77000002815D0002D13D0002C11D002AA009271
:10A780006B4601AAFCF7F0FC002808D168468088D7
:10A79000009982DF23462A460099FCF717FD3EBD4B
:10A7A0000E203EBD30B58DB01C461546002819D090
:10A7B000002D17D0002C15D004AA019203AA0292F2
:10A7C00002AB01AAFCF760FD002809D102990198AB
:10A7D0007DDF694600948A892B460199FCF789FD43
:10A7E0000DB030BD0E20FBE730B58DB01C461546D0
:10A7F00000281DD0002D1BD0002C19D00CAA0192CE
:10A8000004AA02921F226B469A8103AA009202AB0D
:10A8100001AAFCF793FD002808D1684682890299B5
:10A8200001987CDF22462946FCF7B4FD0DB030BD0F
:10A830000E20FBE77CB51C461546002812D0002DE3
:10A8400010D0002C0ED001AB6A46FCF7ABFD0028FF
:10A8500007D168460179008876DF22462946FCF751
:10A86000D1FD7CBD0E207CBD3EB51C4615460028A2
:10A8700013D0002D11D0002C0FD001AA009289B264
:10A880006A46FDF747F9002806D100987BDF22468B
:10A890002946009BFDF758F93EBD0E203EBD3EB552
:10A8A0001C461546002811D0002D0FD0002C0DD0CD
:10A8B00001AA00926A46FDF77FF9002805D10098A9
:10A8C0007ADF22462946FDF7BBF93EBD0E203EBD8C
:10A8D00038B51C461546002810D0002D0ED0002C8F
:10A8E0000CD06A46FDF7B4F9002806D16846008806
:10A8F00083DF22462946FDF7C1F938BD0E2038BD59
:10A9000038B51C461546002810D0002D0ED0002C5E
:10A910000CD06A46FDF7BAF9002806D168460088CF
:10A9200084DF22462946FDF7C9F938BD0E2038BD1F
:10A9300030B58DB01C46154600281BD0002D19D00F
:10A94000002C17D004AA019209AA029202AA00922E
:10A9500089B201AB03AAFDF7B9F9002808D168460E
:10A960008089029A019981DF22462946FDF7E6F99E
:10A970000DB030BD0E20FBE730B587B01C46154644
:10A98000002818D0002D16D0002C14D004AA019253
:10A9900001AA009203AB02AAFDF70EFA002808D123
:10A9A0006846017B0089019A7FDF22462946FDF730
:10A9B0007CFA07B030BD0E20FBE738B51C461546C3
:10A9C000002810D0002D0ED0002C0CD06A46FDF7C8
:10A9D000FFFA002806D16946085677DF2246294645
:10A9E000FDF70EFB38BD0E2038BD30B587B01C46D4
:10A9F000154600281DD0002D1BD0002C19D0002298
:10AA0000049204AA019205AA029202AA009289B2B3
:10AA100001AB03AAFDF7FCFA002808D1684680893B
:10AA2000029A019994DF22462946FDF733FB07B0CD
:10AA300030BD0E20FBE770B58AB01C4615460028D5
:10AA40001CD0002D1AD0002C18D004AB01930B237E
:10AA50006E46338102AB009303AA89B201ABFDF7C6
:10AA600021FB002808D1684602898089019996DF78
:10AA700022462946FDF73FFB0AB070BD0E20FBE7DA
:10AA80003EB51C461546002815D0002D13D0002CCD
:10AA900011D002AA009289B26B4601AAFDF737FBDA
:10AAA000002807D168468088009992DF224629460F
:10AAB000FDF769FB3EBD0E203EBD3EB51C4615466A
:10AAC000002815D0002D13D0002C11D002AA00921E
:10AAD00089B26B4601AAFDF75EFB002807D16846E4
:10AAE0008088009993DF22462946FDF790FB3EBD02
:10AAF0000E203EBD7CB51C461546002812D0002D08
:10AB000010D0002C0ED06A4601ABFDF7EAFE0028FB
:10AB100007D168468188008898DF22462946FDF7DC
:10AB200001FF7CBD0E207CBD30B585B01C461546AE
:10AB3000002819D0002D17D0002C15D004AA01929E
:10AB400001AA009289B203AB02AAFDF703FF002815
:10AB500008D1684681890089019A90DF22462946FA
:10AB6000FDF73DFF05B030BD0E20FBE77FB51C466D
:10AB70001546002817D0002D15D0002C13D003AE99
:10AB800001AA02AB89B20096FDF731FF002808D177
:10AB9000684682890189808895DF22462946FDF72B
:10ABA00052FF04B070BD0E20FBE73EB51C461546B3
:10ABB000002815D0002D13D0002C11D002AA00922D
:10ABC00089B26B4601AAFDF746FF002807D1684607
:10ABD0008088009991DF22462946FDF778FF3EBD27
:10ABE0000E203EBD70B58CB01C46154600281ED008
:10ABF000002D1CD0002C1AD000230393049306933D
:10AC000003AB02936A461423538207AB059389B2C0
:10AC100002ABFDF7A7FF002807D16846008802991C
:10AC200097DF22462946FDF7D5FF0CB070BD0E20F8
:10AC3000FBE770B5FFB0FFB09EB01C4615460E4650
:10AC400000283CD0002D3AD0002C38D001214902F8
:10AC50006A46518212AA0392FFAA4C320592103220
:10AC60000692121D0792121D089202AA0F92FFAAC5
:10AC700068320A92121D0B926A46118692A90E91B1
:10AC80000AA91191FFA95431109110AA11A901929A
:10AC900000910FAB09AA3146FEF7FCF800280AD153
:10ACA0006846808C109B119A0F99A2DF2246294694
:10ACB000109BFEF73FF97FB07FB01EB070BD0E2035
:10ACC000F9E730B5FFB08EB01C461546002827D0F6
:10ACD000002D25D0002C23D004AA01928AAA049228
:10ACE0008BAA05920AAA0892012252026B461A8385
:10ACF00009AA039203AA009201AB02AAFEF740F947
:10AD000000280AD16B461889039A0199A3DF6B4684
:10AD10009B8C22462946FEF773F97FB00EB030BDFA
:10AD20000E20FAE770B5FFB089B01C4615460E46F6
:10AD300000281CD0002D1AD0002C18D00121490267
:10AD40006B46198307AA06A904930392029104ABE8
:10AD500005AA3146FEF7F4FA002809D16846808A30
:10AD60000499A6DF0499002905D08B6804E00E2021
:10AD70007FB009B070BD002322462946FEF712FBC2
:10AD8000F6E730B585B01C46154600281AD0002DD0
:10AD900018D0002C16D004AA019201AA009289B200
:10ADA00003AB02AAFEF726FB002809D16846818979
:10ADB0000089019AA1DF22462946019BFEF74DFB3F
:10ADC00005B030BD0E20FBE730B5FFB088B01C46A3
:10ADD000154600281CD0002D1AD0002C18D06A4629
:10ADE000049206AA0392012252026B465A8104ABD6
:10ADF00005AAFEF7A9FB002807D16846808A0499B6
:10AE0000A8DF22462946FEF7C3FB7FB008B030BD5D
:10AE10000E20FAE730B587B01C46154600281DD035
:10AE2000002D1BD0002C19D00022049204AA0292FB
:10AE300005AA019201AA009202AB03AAFEF7B0FB99
:10AE4000002809D16846007B019A0299A0DF2246BA
:10AE50002946019BFEF7DEFB07B030BD0E20FBE765
:10AE60007FB51C461546002816D0002D14D0002CA6
:10AE700012D003AA009202AB01AAFEF7F3FB00284E
:10AE800008D16846828901898088A7DF2246294641
:10AE9000FEF71BFC04B070BD0E20FBE730B5FFB021
:10AEA00086B01C461546002822D0002D20D0002C4C
:10AEB0001ED005AA0192012252026B461A8204AAF0
:10AEC000029202AA009201AB03AAFEF706FC002838
:10AED0000BD168468089029A0199AADF02990091F4
:10AEE00022462946019BFEF731FC7FB006B030BDFB
:10AEF0000E20FAE730B5FFB086B01C461546002894
:10AF00001DD0002D1BD0002C19D004AA01920122C3
:10AF100052026B461A8102AA009201AB03AAFEF705
:10AF200051FC002808D16846028980890199A9DF6F
:10AF300022462946FEF78BFC7FB006B030BD0E20BE
:10AF4000FAE730B5FFB088B01C461546002822D07D
:10AF5000002D20D0002C1ED006AA029286AA0392B1
:10AF600002AB03AA0193009289B205AB04AAFEF7D3
:10AF700076FC00280CD16846818A008A029B039ADD
:10AF8000A5DF0399009122462946029BFEF7A2FC09
:10AF90007FB008B030BD0E20FAE770B5FFB089B0C1
:10AFA0001C461546002824D0002D22D0002C20D08D
:10AFB00007AA0292012252026B469A8205AA0392C4
:10AFC00002AB03AA0193009289B206AB04AAFEF772
:10AFD000BDFC00280AD16E46318B308A029B039A51
:10AFE000A4DFB38A22462946FEF7E2FC7FB009B00F
:10AFF00070BD0E20FAE738B51C461546002810D063
:10B00000002D0ED0002C0CD06A46FEF7EBFC002879
:10B0100006D168460088B0DF22462946FEF700FDCB
:10B0200038BD0E2038BD38B51C461546002810D056
:10B03000002D0ED0002C0CD06A46FEF7F9FC00283B
:10B0400006D168460088B1DF22462946FEF70EFD8C
:10B0500038BD0E2038BD30B585B01C4615460028D9
:10B060001AD0002D18D0002C16D004AA019200226C
:10B07000029202AA009201AB03AAFEF77DFD00280E
:10B0800008D168468089029A0199B2DF2246294692
:10B09000FEF7AEFD05B030BD0E20FBE730B585B044
:10B0A0001C461546002818D0002D16D0002C14D0B0
:10B0B00003AA019289B201AB02AAFEF7A1FD002802
:10B0C00009D10199029869DF019900912246294628
:10B0D000029BFEF7CBFD05B030BD0E20FBE7F0B5BF
:10B0E0008BB01D4616460C4607001CD0002E1AD009
:10B0F000002D18D00020C04300900020049005903F
:10B1000006900790A1B26A463846FEF7FEFD002879
:10B110000AD102A801900098202807D0212808D041
:10B1200022280AD107E00E200BB0F0BD0AA8039038
:10B1300003E008A800E004A80290A1B201AB6A46AF
:10B140003846FEF7FBFD0028EED10199009868DF34
:10B150002A463146FEF745FEE6E77CB51C46154615
:10B16000002813D0002D11D0002C0FD001AA00927E
:10B1700089B26A46FEF745FE002806D1009862DFD4
:10B1800022462946009BFEF75FFE7CBD0E207CBD5B
:10B1900030B589B01C46154600281ED0002D1CD0A5
:10B1A000002C1AD010226B461A7204AA039208AA25
:10B1B000019201AA009203AB02AAFEF77BFE0028CF
:10B1C00009D16846007A019A039964DF224629462C
:10B1D000019BFEF7A5FE09B030BD0E20FBE730B5A0
:10B1E0008BB01C461546002823D0002D21D0002C02
:10B1F0001FD010226B461A7303AA029205AA01926D
:10B2000009AA049201AA009289B202AB04AAFEF72D
:10B21000B1FE00280BD1019A0299049865DF0199CB
:10B22000009169460B7B22462946FEF7F7FE0BB0DC
:10B2300030BD0E20FBE730B587B01C461546002810
:10B2400018D0002D16D0002C14D002AA019206AA04
:10B25000009289B26B4601AAFEF738FF002807D199
:10B260000099019863DF22462946009BFEF75CFFA8
:10B2700007B030BD0E20FBE73EB51C461546002842
:10B2800013D0002D11D0002C0FD001AA009289B24A
:10B290006A46FEF773FF002806D1009866DF224653
:10B2A0002946009BFEF782FF3EBD0E203EBD0000FA
:10B2B000F0B4002812D0002A10D0002B0ED0057850
:10B2C0000A4E0024E700F75DAF420AD1E400A4195A
:10B2D0006468002C08D0A446F0BC60470E20F0BC87
:10B2E0007047641C362CEDD30620F8E774D00100BB
:10B2F00010B500280AD0002A08D0002B06D089B249
:10B3000000F092FD002800D134DF10BD0E2010BDEA
:10B310007CB51C461546002812D0002D10D0002CFC
:10B320000ED001AA00926A4601F0F8F9002806D171
:10B33000009852DF22462946009B01F012FA7CBD9C
:10B340000E207CBDFFB582B000240B9E68460480B1
:10B350001D4617460471002E0CD0002D0AD0286817
:10B36000002807D039680398401A032804D209201E
:10B3700006B0F0BD0E20FBE76B460399029801F082
:10B38000A5FD694630880988884201D20C20EFE784
:10B3900001AB3A460399029801F033FE6846007902
:10B3A000002801D000240BE02C600EE0286861002A
:10B3B00043183A460399029801F088FD641CA4B230
:10B3C000684600888442F1D334800020D0E7000032
:10B3D0000E494868C005C00D16D0103840B200288C
:10B3E00007DA0207120F083A920892005118C96949
:10B3F00004E08108064A8900891809688007C00EA0
:10B40000C1400806800F70470420704700ED00E03F
:10B4100000E400E00E494868C005C00D16D01038A1
:10B4200040B2002807DA0207120F083A9208920089
:10B430005118C96904E08108064A89008918096819
:10B440008007C00EC1400806800F70470420704777
:10B4500000ED00E000E400E0F8B51646424CD2B240
:10B46000A272A3630125E16365720027E781277853
:10B47000002F08D0002808D0032809D0012F0FD0B2
:10B48000E5810220F8BD0520F8BD00F027F968E04D
:10B49000012FF5D0A0890121C9030843E081F4E719
:10B4A000272902D9E5810120F8BD0027A7810128BD
:10B4B00002D0022809D054E027212C48FAF75FFE79
:10B4C000012000F023FD04202CE0252A02D9E5818B
:10B4D0000320F8BD1F073F0F24485B1C0770244F53
:10B4E000427021D0012B05D0022B09D0032B09D0AB
:10B4F000E58130E032461F49801CFAF727FE06E05E
:10B500000F2200E055223146801CFAF731FE002060
:10B5100000F0FCFCA1691848FF314131016147612D
:10B520004560022020701CE00846002E06D0012E47
:10B5300004D0022E0CD0032E13D10EE0002000F018
:10B54000E5FC0E49032008600D490D603D60E9E708
:10B5500000F060F803E00420F8BD00F039F800289E
:10B56000F9D00020F8BD0000042000206027002052
:10B57000001000404CD0010000F501404015004093
:10B5800000120040034900234A7A4B72C9890160C6
:10B59000104670470420002010B501F00DF9002876
:10B5A00003D100F053FC002801D0042010BD064850
:10B5B00000214172012101700448016910221143E8
:10B5C0000161002010BD00000420002000ED00E01B
:10B5D0000C490A78012A05D8002805D0012807D08F
:10B5E000022809D00020704707488861082006E03B
:10B5F00006488861092002E0054888610A204870F1
:10B60000012070470420002000800040009000408E
:10B6100000A00040074942B20B78012B04D8283221
:10B620002D2A01D2820701D00020704748610120F5
:10B630007047000004200020F3B5002681B0374693
:10B64000344601A801F0B0F9002804D1FFF7A4FFA7
:10B65000002801D00320FEBD1D4D00F053F8A9685D
:10B660000029FAD00021A9601A498969002FC9B2BE
:10B6700007D0194A1268B218824204D20C02064658
:10B68000EBE70127FAE70C43A1042206A3070027F2
:10B69000A00B890E920E9B0F032B00D11B1FFFF7EF
:10B6A000DBFE6846FFF76EFF0028D6D0009908043D
:10B6B000020E0848C261EA69012AFCD10022EA614F
:10B6C000C9B2C161E8690128FCD1EA61C5E700009F
:10B6D0000021004000250040B420002010B506499C
:10B6E00000200860054901248C600861486100F071
:10B6F00039FC0348047010BD4015004000F50140BE
:10B7000004200020F8B51E48016910221143016190
:10B710001C4F01251C4C0026F868002817D0FE603D
:10B720001A48022101602078042810D11848456089
:10B7300018480068012806D1FEF7C8FD002802D08D
:10B74000A089401CA08127211348FAF718FDA069A1
:10B75000FF300130016C002901D00664DCE7406C49
:10B760000028D9D0A069FF30013046646078C00657
:10B77000C00E8540054805602069401C2061F8BD69
:10B7800000ED00E0001100400420002080E200E015
:10B7900000100040001400406027002010B50E4942
:10B7A00000238A78CC78A24212D0521CD2B28A707E
:10B7B000022A00D18B708A78074B92001C339A586A
:10B7C0000260486910180002000A4861012010BD9B
:10B7D0000360002010BD000064200020F7B5144C69
:10B7E0000025A76823691EE024215943C9194E6822
:10B7F000864202D9301A486017E0801B751900266E
:10B800004E600E750E699C460B6AB646002E0AD035
:10B81000019E76193602360A8E607646CE6016682C
:10B820000E6261461160591CDED12361FEBD00002D
:10B830006420002070B51E4C05466069002601405A
:10B84000002920D0E6702079FAF792FE6078062869
:10B8500007D061780320052906D02178002907D078
:10B8600011E00120A0700EE0607001F085FA0AE09E
:10B870006178002907D101210E4AC90391600E4960
:10B88000086001F01FF9606905420FD0E0780028D8
:10B890000CD0E6702078002808D16078002805D107
:10B8A00060892189884201D101F0D8F870BD00007B
:10B8B00090200020000500503C070050F8B51E4CB9
:10B8C0002078002837D02069002807D00026E068BB
:10B8D000002805D00025002E04D013E00126F6E74D
:10B8E0000125F8E7684651DF052806D0002806D074
:10B8F00000221146FAF7B6FD04E0012602E02169B4
:10B9000000988847002D12D1608869460880A06899
:10B9100061DF052806D0002806D000221146FAF77C
:10B92000A1FD04E0012502E0E168A0688847002E3F
:10B93000D8D0002DCFD0F8BD242100201048018C94
:10B94000C9B2012917D1818C090714D1018D0906CB
:10B950000A0F03D1828D1206120F0ED0090F012992
:10B9600003D1828D1206120F07D0032903D1808DD7
:10B970000006000F01D00020704701207047000032
:10B98000C00F00F0FFB583B00C9C1E4617462588FB
:10B9900023460499039801F0CBFA002808D12088A7
:10B9A000019033463A46009504990398FEF730FC1F
:10B9B00007B0F0BDFFB581B01D4616460A9C07468C
:10B9C00023462A46314602A801F0C4FA002807D1CE
:10B9D0006846009401892B4632463846FEF74DFCF6
:10B9E00005B0F0BDFFB583B00C9C1E461746257808
:10B9F00023460499039801F00FFB002808D1207812
:10BA0000019033463A46009504990398FEF700FCEE
:10BA100007B0F0BDF8B5234801690091457833E0DF
:10BA20002048E900C0680E1834782AE018206043E6
:10BA30007168641C0818B178E4B2A14200D10024F6
:10BA40000178022902D003291BD113E0154A40686E
:10BA50002421926841438F18397D002911D000F0CC
:10BA600015FF002038750CE024277843C0180275B4
:10BA7000006A03E00B4900228B680869471CF3D178
:10BA800008617078A042D1D128466D1EEDB2002821
:10BA9000C6D1044801690098814201D00120F8BD57
:10BAA0000020F8BD64200020F8B504463448016940
:10BAB0000091467856E03248F100C2688D184BE09C
:10BAC000601C07D02E4A24219268614320468918C1
:10BAD0000C6A20E02878182141436A68401CC0B2F3
